{
  "contractName": "OnChainNFTPro",
  "abi": [
    {
      "inputs": [],
      "stateMutability": "nonpayable",
      "type": "constructor"
    },
    {
      "anonymous": false,
      "inputs": [
        {
          "indexed": true,
          "internalType": "address",
          "name": "owner",
          "type": "address"
        },
        {
          "indexed": true,
          "internalType": "address",
          "name": "approved",
          "type": "address"
        },
        {
          "indexed": true,
          "internalType": "uint256",
          "name": "tokenId",
          "type": "uint256"
        }
      ],
      "name": "Approval",
      "type": "event"
    },
    {
      "anonymous": false,
      "inputs": [
        {
          "indexed": true,
          "internalType": "address",
          "name": "owner",
          "type": "address"
        },
        {
          "indexed": true,
          "internalType": "address",
          "name": "operator",
          "type": "address"
        },
        {
          "indexed": false,
          "internalType": "bool",
          "name": "approved",
          "type": "bool"
        }
      ],
      "name": "ApprovalForAll",
      "type": "event"
    },
    {
      "anonymous": false,
      "inputs": [
        {
          "indexed": true,
          "internalType": "address",
          "name": "previousOwner",
          "type": "address"
        },
        {
          "indexed": true,
          "internalType": "address",
          "name": "newOwner",
          "type": "address"
        }
      ],
      "name": "OwnershipTransferred",
      "type": "event"
    },
    {
      "anonymous": false,
      "inputs": [
        {
          "indexed": true,
          "internalType": "address",
          "name": "from",
          "type": "address"
        },
        {
          "indexed": true,
          "internalType": "address",
          "name": "to",
          "type": "address"
        },
        {
          "indexed": true,
          "internalType": "uint256",
          "name": "tokenId",
          "type": "uint256"
        }
      ],
      "name": "Transfer",
      "type": "event"
    },
    {
      "inputs": [
        {
          "internalType": "address",
          "name": "to",
          "type": "address"
        },
        {
          "internalType": "uint256",
          "name": "tokenId",
          "type": "uint256"
        }
      ],
      "name": "approve",
      "outputs": [],
      "stateMutability": "nonpayable",
      "type": "function"
    },
    {
      "inputs": [
        {
          "internalType": "address",
          "name": "owner",
          "type": "address"
        }
      ],
      "name": "balanceOf",
      "outputs": [
        {
          "internalType": "uint256",
          "name": "",
          "type": "uint256"
        }
      ],
      "stateMutability": "view",
      "type": "function",
      "constant": true
    },
    {
      "inputs": [],
      "name": "baseExtension",
      "outputs": [
        {
          "internalType": "string",
          "name": "",
          "type": "string"
        }
      ],
      "stateMutability": "view",
      "type": "function",
      "constant": true
    },
    {
      "inputs": [],
      "name": "cost",
      "outputs": [
        {
          "internalType": "uint256",
          "name": "",
          "type": "uint256"
        }
      ],
      "stateMutability": "view",
      "type": "function",
      "constant": true
    },
    {
      "inputs": [
        {
          "internalType": "uint256",
          "name": "tokenId",
          "type": "uint256"
        }
      ],
      "name": "getApproved",
      "outputs": [
        {
          "internalType": "address",
          "name": "",
          "type": "address"
        }
      ],
      "stateMutability": "view",
      "type": "function",
      "constant": true
    },
    {
      "inputs": [
        {
          "internalType": "address",
          "name": "owner",
          "type": "address"
        },
        {
          "internalType": "address",
          "name": "operator",
          "type": "address"
        }
      ],
      "name": "isApprovedForAll",
      "outputs": [
        {
          "internalType": "bool",
          "name": "",
          "type": "bool"
        }
      ],
      "stateMutability": "view",
      "type": "function",
      "constant": true
    },
    {
      "inputs": [],
      "name": "maxMintAmount",
      "outputs": [
        {
          "internalType": "uint256",
          "name": "",
          "type": "uint256"
        }
      ],
      "stateMutability": "view",
      "type": "function",
      "constant": true
    },
    {
      "inputs": [],
      "name": "maxSupply",
      "outputs": [
        {
          "internalType": "uint256",
          "name": "",
          "type": "uint256"
        }
      ],
      "stateMutability": "view",
      "type": "function",
      "constant": true
    },
    {
      "inputs": [],
      "name": "name",
      "outputs": [
        {
          "internalType": "string",
          "name": "",
          "type": "string"
        }
      ],
      "stateMutability": "view",
      "type": "function",
      "constant": true
    },
    {
      "inputs": [],
      "name": "notRevealedUri",
      "outputs": [
        {
          "internalType": "string",
          "name": "",
          "type": "string"
        }
      ],
      "stateMutability": "view",
      "type": "function",
      "constant": true
    },
    {
      "inputs": [],
      "name": "owner",
      "outputs": [
        {
          "internalType": "address",
          "name": "",
          "type": "address"
        }
      ],
      "stateMutability": "view",
      "type": "function",
      "constant": true
    },
    {
      "inputs": [
        {
          "internalType": "uint256",
          "name": "tokenId",
          "type": "uint256"
        }
      ],
      "name": "ownerOf",
      "outputs": [
        {
          "internalType": "address",
          "name": "",
          "type": "address"
        }
      ],
      "stateMutability": "view",
      "type": "function",
      "constant": true
    },
    {
      "inputs": [],
      "name": "paused",
      "outputs": [
        {
          "internalType": "bool",
          "name": "",
          "type": "bool"
        }
      ],
      "stateMutability": "view",
      "type": "function",
      "constant": true
    },
    {
      "inputs": [],
      "name": "renounceOwnership",
      "outputs": [],
      "stateMutability": "nonpayable",
      "type": "function"
    },
    {
      "inputs": [],
      "name": "revealed",
      "outputs": [
        {
          "internalType": "bool",
          "name": "",
          "type": "bool"
        }
      ],
      "stateMutability": "view",
      "type": "function",
      "constant": true
    },
    {
      "inputs": [
        {
          "internalType": "address",
          "name": "from",
          "type": "address"
        },
        {
          "internalType": "address",
          "name": "to",
          "type": "address"
        },
        {
          "internalType": "uint256",
          "name": "tokenId",
          "type": "uint256"
        }
      ],
      "name": "safeTransferFrom",
      "outputs": [],
      "stateMutability": "nonpayable",
      "type": "function"
    },
    {
      "inputs": [
        {
          "internalType": "address",
          "name": "from",
          "type": "address"
        },
        {
          "internalType": "address",
          "name": "to",
          "type": "address"
        },
        {
          "internalType": "uint256",
          "name": "tokenId",
          "type": "uint256"
        },
        {
          "internalType": "bytes",
          "name": "data",
          "type": "bytes"
        }
      ],
      "name": "safeTransferFrom",
      "outputs": [],
      "stateMutability": "nonpayable",
      "type": "function"
    },
    {
      "inputs": [
        {
          "internalType": "address",
          "name": "operator",
          "type": "address"
        },
        {
          "internalType": "bool",
          "name": "approved",
          "type": "bool"
        }
      ],
      "name": "setApprovalForAll",
      "outputs": [],
      "stateMutability": "nonpayable",
      "type": "function"
    },
    {
      "inputs": [
        {
          "internalType": "bytes4",
          "name": "interfaceId",
          "type": "bytes4"
        }
      ],
      "name": "supportsInterface",
      "outputs": [
        {
          "internalType": "bool",
          "name": "",
          "type": "bool"
        }
      ],
      "stateMutability": "view",
      "type": "function",
      "constant": true
    },
    {
      "inputs": [],
      "name": "symbol",
      "outputs": [
        {
          "internalType": "string",
          "name": "",
          "type": "string"
        }
      ],
      "stateMutability": "view",
      "type": "function",
      "constant": true
    },
    {
      "inputs": [
        {
          "internalType": "uint256",
          "name": "index",
          "type": "uint256"
        }
      ],
      "name": "tokenByIndex",
      "outputs": [
        {
          "internalType": "uint256",
          "name": "",
          "type": "uint256"
        }
      ],
      "stateMutability": "view",
      "type": "function",
      "constant": true
    },
    {
      "inputs": [
        {
          "internalType": "address",
          "name": "owner",
          "type": "address"
        },
        {
          "internalType": "uint256",
          "name": "index",
          "type": "uint256"
        }
      ],
      "name": "tokenOfOwnerByIndex",
      "outputs": [
        {
          "internalType": "uint256",
          "name": "",
          "type": "uint256"
        }
      ],
      "stateMutability": "view",
      "type": "function",
      "constant": true
    },
    {
      "inputs": [],
      "name": "totalSupply",
      "outputs": [
        {
          "internalType": "uint256",
          "name": "",
          "type": "uint256"
        }
      ],
      "stateMutability": "view",
      "type": "function",
      "constant": true
    },
    {
      "inputs": [
        {
          "internalType": "address",
          "name": "from",
          "type": "address"
        },
        {
          "internalType": "address",
          "name": "to",
          "type": "address"
        },
        {
          "internalType": "uint256",
          "name": "tokenId",
          "type": "uint256"
        }
      ],
      "name": "transferFrom",
      "outputs": [],
      "stateMutability": "nonpayable",
      "type": "function"
    },
    {
      "inputs": [
        {
          "internalType": "address",
          "name": "newOwner",
          "type": "address"
        }
      ],
      "name": "transferOwnership",
      "outputs": [],
      "stateMutability": "nonpayable",
      "type": "function"
    },
    {
      "inputs": [
        {
          "internalType": "uint256",
          "name": "_mintAmount",
          "type": "uint256"
        }
      ],
      "name": "mint",
      "outputs": [],
      "stateMutability": "payable",
      "type": "function",
      "payable": true
    },
    {
      "inputs": [
        {
          "internalType": "address",
          "name": "_owner",
          "type": "address"
        }
      ],
      "name": "walletOfOwner",
      "outputs": [
        {
          "internalType": "uint256[]",
          "name": "",
          "type": "uint256[]"
        }
      ],
      "stateMutability": "view",
      "type": "function",
      "constant": true
    },
    {
      "inputs": [
        {
          "internalType": "uint256",
          "name": "tokenId",
          "type": "uint256"
        }
      ],
      "name": "tokenURI",
      "outputs": [
        {
          "internalType": "string",
          "name": "",
          "type": "string"
        }
      ],
      "stateMutability": "view",
      "type": "function",
      "constant": true
    },
    {
      "inputs": [],
      "name": "reveal",
      "outputs": [],
      "stateMutability": "nonpayable",
      "type": "function"
    },
    {
      "inputs": [
        {
          "internalType": "uint256",
          "name": "_newCost",
          "type": "uint256"
        }
      ],
      "name": "setCost",
      "outputs": [],
      "stateMutability": "nonpayable",
      "type": "function"
    },
    {
      "inputs": [
        {
          "internalType": "uint256",
          "name": "_newmaxMintAmount",
          "type": "uint256"
        }
      ],
      "name": "setmaxMintAmount",
      "outputs": [],
      "stateMutability": "nonpayable",
      "type": "function"
    },
    {
      "inputs": [
        {
          "internalType": "string",
          "name": "_notRevealedURI",
          "type": "string"
        }
      ],
      "name": "setNotRevealedURI",
      "outputs": [],
      "stateMutability": "nonpayable",
      "type": "function"
    },
    {
      "inputs": [
        {
          "internalType": "string",
          "name": "_newBaseURI",
          "type": "string"
        }
      ],
      "name": "setBaseURI",
      "outputs": [],
      "stateMutability": "nonpayable",
      "type": "function"
    },
    {
      "inputs": [
        {
          "internalType": "string",
          "name": "_newBaseExtension",
          "type": "string"
        }
      ],
      "name": "setBaseExtension",
      "outputs": [],
      "stateMutability": "nonpayable",
      "type": "function"
    },
    {
      "inputs": [
        {
          "internalType": "bool",
          "name": "_state",
          "type": "bool"
        }
      ],
      "name": "pause",
      "outputs": [],
      "stateMutability": "nonpayable",
      "type": "function"
    },
    {
      "inputs": [],
      "name": "withdraw",
      "outputs": [],
      "stateMutability": "payable",
      "type": "function",
      "payable": true
    }
  ],
  "bytecode": "0x60806040526040518060400160405280600581526020017f2e6a736f6e000000000000000000000000000000000000000000000000000000815250600c90805190602001906200005192919062000240565b5066b1a2bc2ec50000600d55612710600e556014600f556000601060006101000a81548160ff0219169083151502179055506000601060016101000a81548160ff021916908315150217905550348015620000ab57600080fd5b506040518060400160405280601281526020017f4f6e436861696e506978656c61727450726f00000000000000000000000000008152506040518060400160405280600481526020017f4f4350500000000000000000000000000000000000000000000000000000000081525081600090805190602001906200013092919062000240565b5080600190805190602001906200014992919062000240565b5050506200016c620001606200017260201b60201c565b6200017a60201b60201c565b62000354565b600033905090565b6000600a60009054906101000a900473ffffffffffffffffffffffffffffffffffffffff16905081600a60006101000a81548173ffffffffffffffffffffffffffffffffffffffff021916908373ffffffffffffffffffffffffffffffffffffffff1602179055508173ffffffffffffffffffffffffffffffffffffffff168173ffffffffffffffffffffffffffffffffffffffff167f8be0079c531659141344cd1fd0a4f28419497f9722a3daafe3b4186f6b6457e060405160405180910390a35050565b8280546200024e906200031f565b90600052602060002090601f016020900481019282620002725760008555620002be565b82601f106200028d57805160ff1916838001178555620002be565b82800160010185558215620002be579182015b82811115620002bd578251825591602001919060010190620002a0565b5b509050620002cd9190620002d1565b5090565b5b80821115620002ec576000816000905550600101620002d2565b5090565b7f4e487b7100000000000000000000000000000000000000000000000000000000600052602260045260246000fd5b600060028204905060018216806200033857607f821691505b6020821081036200034e576200034d620002f0565b5b50919050565b613f0e80620003646000396000f3fe60806040526004361061020f5760003560e01c80635c975abb11610118578063a475b5dd116100a0578063d5abeb011161006f578063d5abeb011461076f578063da3ef23f1461079a578063e985e9c5146107c3578063f2c4ce1e14610800578063f2fde38b146108295761020f565b8063a475b5dd146106c7578063b88d4fde146106de578063c668286214610707578063c87b56dd146107325761020f565b80637f00c7a6116100e75780637f00c7a6146106035780638da5cb5b1461062c57806395d89b4114610657578063a0712d6814610682578063a22cb4651461069e5761020f565b80635c975abb146105475780636352211e1461057257806370a08231146105af578063715018a6146105ec5761020f565b806323b872dd1161019b578063438b63001161016a578063438b63001461045057806344a0d68a1461048d5780634f6ccce7146104b657806351830227146104f357806355f804b31461051e5761020f565b806323b872dd146103b75780632f745c59146103e05780633ccfd60b1461041d57806342842e0e146104275761020f565b8063081c8c44116101e2578063081c8c44146102e2578063095ea7b31461030d57806313faede61461033657806318160ddd14610361578063239c70ae1461038c5761020f565b806301ffc9a71461021457806302329a291461025157806306fdde031461027a578063081812fc146102a5575b600080fd5b34801561022057600080fd5b5061023b60048036038101906102369190612a54565b610852565b6040516102489190612a9c565b60405180910390f35b34801561025d57600080fd5b5061027860048036038101906102739190612ae3565b6108cc565b005b34801561028657600080fd5b5061028f6108f1565b60405161029c9190612ba9565b60405180910390f35b3480156102b157600080fd5b506102cc60048036038101906102c79190612c01565b610983565b6040516102d99190612c6f565b60405180910390f35b3480156102ee57600080fd5b506102f76109c9565b6040516103049190612ba9565b60405180910390f35b34801561031957600080fd5b50610334600480360381019061032f9190612cb6565b610a57565b005b34801561034257600080fd5b5061034b610b6e565b6040516103589190612d05565b60405180910390f35b34801561036d57600080fd5b50610376610b74565b6040516103839190612d05565b60405180910390f35b34801561039857600080fd5b506103a1610b81565b6040516103ae9190612d05565b60405180910390f35b3480156103c357600080fd5b506103de60048036038101906103d99190612d20565b610b87565b005b3480156103ec57600080fd5b5061040760048036038101906104029190612cb6565b610be7565b6040516104149190612d05565b60405180910390f35b610425610c8c565b005b34801561043357600080fd5b5061044e60048036038101906104499190612d20565b610db7565b005b34801561045c57600080fd5b5061047760048036038101906104729190612d73565b610dd7565b6040516104849190612e5e565b60405180910390f35b34801561049957600080fd5b506104b460048036038101906104af9190612c01565b610e85565b005b3480156104c257600080fd5b506104dd60048036038101906104d89190612c01565b610e97565b6040516104ea9190612d05565b60405180910390f35b3480156104ff57600080fd5b50610508610f08565b6040516105159190612a9c565b60405180910390f35b34801561052a57600080fd5b5061054560048036038101906105409190612fb5565b610f1b565b005b34801561055357600080fd5b5061055c610f3d565b6040516105699190612a9c565b60405180910390f35b34801561057e57600080fd5b5061059960048036038101906105949190612c01565b610f50565b6040516105a69190612c6f565b60405180910390f35b3480156105bb57600080fd5b506105d660048036038101906105d19190612d73565b611001565b6040516105e39190612d05565b60405180910390f35b3480156105f857600080fd5b506106016110b8565b005b34801561060f57600080fd5b5061062a60048036038101906106259190612c01565b6110cc565b005b34801561063857600080fd5b506106416110de565b60405161064e9190612c6f565b60405180910390f35b34801561066357600080fd5b5061066c611108565b6040516106799190612ba9565b60405180910390f35b61069c60048036038101906106979190612c01565b61119a565b005b3480156106aa57600080fd5b506106c560048036038101906106c09190612ffe565b611286565b005b3480156106d357600080fd5b506106dc61129c565b005b3480156106ea57600080fd5b50610705600480360381019061070091906130df565b6112c1565b005b34801561071357600080fd5b5061071c611323565b6040516107299190612ba9565b60405180910390f35b34801561073e57600080fd5b5061075960048036038101906107549190612c01565b6113b1565b6040516107669190612ba9565b60405180910390f35b34801561077b57600080fd5b50610784611509565b6040516107919190612d05565b60405180910390f35b3480156107a657600080fd5b506107c160048036038101906107bc9190612fb5565b61150f565b005b3480156107cf57600080fd5b506107ea60048036038101906107e59190613162565b611531565b6040516107f79190612a9c565b60405180910390f35b34801561080c57600080fd5b5061082760048036038101906108229190612fb5565b6115c5565b005b34801561083557600080fd5b50610850600480360381019061084b9190612d73565b6115e7565b005b60007f780e9d63000000000000000000000000000000000000000000000000000000007bffffffffffffffffffffffffffffffffffffffffffffffffffffffff1916827bffffffffffffffffffffffffffffffffffffffffffffffffffffffff191614806108c557506108c48261166a565b5b9050919050565b6108d461174c565b80601060006101000a81548160ff02191690831515021790555050565b606060008054610900906131d1565b80601f016020809104026020016040519081016040528092919081815260200182805461092c906131d1565b80156109795780601f1061094e57610100808354040283529160200191610979565b820191906000526020600020905b81548152906001019060200180831161095c57829003601f168201915b5050505050905090565b600061098e826117ca565b6004600083815260200190815260200160002060009054906101000a900473ffffffffffffffffffffffffffffffffffffffff169050919050565b601180546109d6906131d1565b80601f0160208091040260200160405190810160405280929190818152602001828054610a02906131d1565b8015610a4f5780601f10610a2457610100808354040283529160200191610a4f565b820191906000526020600020905b815481529060010190602001808311610a3257829003601f168201915b505050505081565b6000610a6282610f50565b90508073ffffffffffffffffffffffffffffffffffffffff168373ffffffffffffffffffffffffffffffffffffffff1603610ad2576040517f08c379a0000000000000000000000000000000000000000000000000000000008152600401610ac990613274565b60405180910390fd5b8073ffffffffffffffffffffffffffffffffffffffff16610af1611815565b73ffffffffffffffffffffffffffffffffffffffff161480610b205750610b1f81610b1a611815565b611531565b5b610b5f576040517f08c379a0000000000000000000000000000000000000000000000000000000008152600401610b5690613306565b60405180910390fd5b610b69838361181d565b505050565b600d5481565b6000600880549050905090565b600f5481565b610b98610b92611815565b826118d6565b610bd7576040517f08c379a0000000000000000000000000000000000000000000000000000000008152600401610bce90613398565b60405180910390fd5b610be283838361196b565b505050565b6000610bf283611001565b8210610c33576040517f08c379a0000000000000000000000000000000000000000000000000000000008152600401610c2a9061342a565b60405180910390fd5b600660008473ffffffffffffffffffffffffffffffffffffffff1673ffffffffffffffffffffffffffffffffffffffff168152602001908152602001600020600083815260200190815260200160002054905092915050565b610c9461174c565b600073943590a42c27d08e3744202c4ae5ed55c2de240d73ffffffffffffffffffffffffffffffffffffffff166064600547610cd09190613479565b610cda9190613502565b604051610ce690613564565b60006040518083038185875af1925050503d8060008114610d23576040519150601f19603f3d011682016040523d82523d6000602084013e610d28565b606091505b5050905080610d3657600080fd5b6000610d406110de565b73ffffffffffffffffffffffffffffffffffffffff1647604051610d6390613564565b60006040518083038185875af1925050503d8060008114610da0576040519150601f19603f3d011682016040523d82523d6000602084013e610da5565b606091505b5050905080610db357600080fd5b5050565b610dd2838383604051806020016040528060008152506112c1565b505050565b60606000610de483611001565b905060008167ffffffffffffffff811115610e0257610e01612e8a565b5b604051908082528060200260200182016040528015610e305781602001602082028036833780820191505090505b50905060005b82811015610e7a57610e488582610be7565b828281518110610e5b57610e5a613579565b5b6020026020010181815250508080610e72906135a8565b915050610e36565b508092505050919050565b610e8d61174c565b80600d8190555050565b6000610ea1610b74565b8210610ee2576040517f08c379a0000000000000000000000000000000000000000000000000000000008152600401610ed990613662565b60405180910390fd5b60088281548110610ef657610ef5613579565b5b90600052602060002001549050919050565b601060019054906101000a900460ff1681565b610f2361174c565b80600b9080519060200190610f39929190612945565b5050565b601060009054906101000a900460ff1681565b6000806002600084815260200190815260200160002060009054906101000a900473ffffffffffffffffffffffffffffffffffffffff169050600073ffffffffffffffffffffffffffffffffffffffff168173ffffffffffffffffffffffffffffffffffffffff1603610ff8576040517f08c379a0000000000000000000000000000000000000000000000000000000008152600401610fef906136ce565b60405180910390fd5b80915050919050565b60008073ffffffffffffffffffffffffffffffffffffffff168273ffffffffffffffffffffffffffffffffffffffff1603611071576040517f08c379a000000000000000000000000000000000000000000000000000000000815260040161106890613760565b60405180910390fd5b600360008373ffffffffffffffffffffffffffffffffffffffff1673ffffffffffffffffffffffffffffffffffffffff168152602001908152602001600020549050919050565b6110c061174c565b6110ca6000611bd1565b565b6110d461174c565b80600f8190555050565b6000600a60009054906101000a900473ffffffffffffffffffffffffffffffffffffffff16905090565b606060018054611117906131d1565b80601f0160208091040260200160405190810160405280929190818152602001828054611143906131d1565b80156111905780601f1061116557610100808354040283529160200191611190565b820191906000526020600020905b81548152906001019060200180831161117357829003601f168201915b5050505050905090565b60006111a4610b74565b9050601060009054906101000a900460ff16156111c057600080fd5b600082116111cd57600080fd5b600f548211156111dc57600080fd5b600e5482826111eb9190613780565b11156111f657600080fd5b6111fe6110de565b73ffffffffffffffffffffffffffffffffffffffff163373ffffffffffffffffffffffffffffffffffffffff161461124b5781600d5461123e9190613479565b34101561124a57600080fd5b5b6000600190505b8281116112815761126e3382846112699190613780565b611c97565b8080611279906135a8565b915050611252565b505050565b611298611291611815565b8383611cb5565b5050565b6112a461174c565b6001601060016101000a81548160ff021916908315150217905550565b6112d26112cc611815565b836118d6565b611311576040517f08c379a000000000000000000000000000000000000000000000000000000000815260040161130890613398565b60405180910390fd5b61131d84848484611e21565b50505050565b600c8054611330906131d1565b80601f016020809104026020016040519081016040528092919081815260200182805461135c906131d1565b80156113a95780601f1061137e576101008083540402835291602001916113a9565b820191906000526020600020905b81548152906001019060200180831161138c57829003601f168201915b505050505081565b60606113bc82611e7d565b6113fb576040517f08c379a00000000000000000000000000000000000000000000000000000000081526004016113f290613848565b60405180910390fd5b60001515601060019054906101000a900460ff161515036114a85760118054611423906131d1565b80601f016020809104026020016040519081016040528092919081815260200182805461144f906131d1565b801561149c5780601f106114715761010080835404028352916020019161149c565b820191906000526020600020905b81548152906001019060200180831161147f57829003601f168201915b50505050509050611504565b60006114b2611ee9565b905060008151116114d25760405180602001604052806000815250611500565b806114dc84611f7b565b600c6040516020016114f093929190613938565b6040516020818303038152906040525b9150505b919050565b600e5481565b61151761174c565b80600c908051906020019061152d929190612945565b5050565b6000600560008473ffffffffffffffffffffffffffffffffffffffff1673ffffffffffffffffffffffffffffffffffffffff16815260200190815260200160002060008373ffffffffffffffffffffffffffffffffffffffff1673ffffffffffffffffffffffffffffffffffffffff16815260200190815260200160002060009054906101000a900460ff16905092915050565b6115cd61174c565b80601190805190602001906115e3929190612945565b5050565b6115ef61174c565b600073ffffffffffffffffffffffffffffffffffffffff168173ffffffffffffffffffffffffffffffffffffffff160361165e576040517f08c379a0000000000000000000000000000000000000000000000000000000008152600401611655906139db565b60405180910390fd5b61166781611bd1565b50565b60007f80ac58cd000000000000000000000000000000000000000000000000000000007bffffffffffffffffffffffffffffffffffffffffffffffffffffffff1916827bffffffffffffffffffffffffffffffffffffffffffffffffffffffff1916148061173557507f5b5e139f000000000000000000000000000000000000000000000000000000007bffffffffffffffffffffffffffffffffffffffffffffffffffffffff1916827bffffffffffffffffffffffffffffffffffffffffffffffffffffffff1916145b806117455750611744826120db565b5b9050919050565b611754611815565b73ffffffffffffffffffffffffffffffffffffffff166117726110de565b73ffffffffffffffffffffffffffffffffffffffff16146117c8576040517f08c379a00000000000000000000000000000000000000000000000000000000081526004016117bf90613a47565b60405180910390fd5b565b6117d381611e7d565b611812576040517f08c379a0000000000000000000000000000000000000000000000000000000008152600401611809906136ce565b60405180910390fd5b50565b600033905090565b816004600083815260200190815260200160002060006101000a81548173ffffffffffffffffffffffffffffffffffffffff021916908373ffffffffffffffffffffffffffffffffffffffff160217905550808273ffffffffffffffffffffffffffffffffffffffff1661189083610f50565b73ffffffffffffffffffffffffffffffffffffffff167f8c5be1e5ebec7d5bd14f71427d1e84f3dd0314c0f7b2291e5b200ac8c7c3b92560405160405180910390a45050565b6000806118e283610f50565b90508073ffffffffffffffffffffffffffffffffffffffff168473ffffffffffffffffffffffffffffffffffffffff16148061192457506119238185611531565b5b8061196257508373ffffffffffffffffffffffffffffffffffffffff1661194a84610983565b73ffffffffffffffffffffffffffffffffffffffff16145b91505092915050565b8273ffffffffffffffffffffffffffffffffffffffff1661198b82610f50565b73ffffffffffffffffffffffffffffffffffffffff16146119e1576040517f08c379a00000000000000000000000000000000000000000000000000000000081526004016119d890613ad9565b60405180910390fd5b600073ffffffffffffffffffffffffffffffffffffffff168273ffffffffffffffffffffffffffffffffffffffff1603611a50576040517f08c379a0000000000000000000000000000000000000000000000000000000008152600401611a4790613b6b565b60405180910390fd5b611a5b838383612145565b611a6660008261181d565b6001600360008573ffffffffffffffffffffffffffffffffffffffff1673ffffffffffffffffffffffffffffffffffffffff1681526020019081526020016000206000828254611ab69190613b8b565b925050819055506001600360008473ffffffffffffffffffffffffffffffffffffffff1673ffffffffffffffffffffffffffffffffffffffff1681526020019081526020016000206000828254611b0d9190613780565b92505081905550816002600083815260200190815260200160002060006101000a81548173ffffffffffffffffffffffffffffffffffffffff021916908373ffffffffffffffffffffffffffffffffffffffff160217905550808273ffffffffffffffffffffffffffffffffffffffff168473ffffffffffffffffffffffffffffffffffffffff167fddf252ad1be2c89b69c2b068fc378daa952ba7f163c4a11628f55a4df523b3ef60405160405180910390a4611bcc838383612257565b505050565b6000600a60009054906101000a900473ffffffffffffffffffffffffffffffffffffffff16905081600a60006101000a81548173ffffffffffffffffffffffffffffffffffffffff021916908373ffffffffffffffffffffffffffffffffffffffff1602179055508173ffffffffffffffffffffffffffffffffffffffff168173ffffffffffffffffffffffffffffffffffffffff167f8be0079c531659141344cd1fd0a4f28419497f9722a3daafe3b4186f6b6457e060405160405180910390a35050565b611cb182826040518060200160405280600081525061225c565b5050565b8173ffffffffffffffffffffffffffffffffffffffff168373ffffffffffffffffffffffffffffffffffffffff1603611d23576040517f08c379a0000000000000000000000000000000000000000000000000000000008152600401611d1a90613c0b565b60405180910390fd5b80600560008573ffffffffffffffffffffffffffffffffffffffff1673ffffffffffffffffffffffffffffffffffffffff16815260200190815260200160002060008473ffffffffffffffffffffffffffffffffffffffff1673ffffffffffffffffffffffffffffffffffffffff16815260200190815260200160002060006101000a81548160ff0219169083151502179055508173ffffffffffffffffffffffffffffffffffffffff168373ffffffffffffffffffffffffffffffffffffffff167f17307eab39ab6107e8899845ad3d59bd9653f200f220920489ca2b5937696c3183604051611e149190612a9c565b60405180910390a3505050565b611e2c84848461196b565b611e38848484846122b7565b611e77576040517f08c379a0000000000000000000000000000000000000000000000000000000008152600401611e6e90613c9d565b60405180910390fd5b50505050565b60008073ffffffffffffffffffffffffffffffffffffffff166002600084815260200190815260200160002060009054906101000a900473ffffffffffffffffffffffffffffffffffffffff1673ffffffffffffffffffffffffffffffffffffffff1614159050919050565b6060600b8054611ef8906131d1565b80601f0160208091040260200160405190810160405280929190818152602001828054611f24906131d1565b8015611f715780601f10611f4657610100808354040283529160200191611f71565b820191906000526020600020905b815481529060010190602001808311611f5457829003601f168201915b5050505050905090565b606060008203611fc2576040518060400160405280600181526020017f300000000000000000000000000000000000000000000000000000000000000081525090506120d6565b600082905060005b60008214611ff4578080611fdd906135a8565b915050600a82611fed9190613502565b9150611fca565b60008167ffffffffffffffff8111156120105761200f612e8a565b5b6040519080825280601f01601f1916602001820160405280156120425781602001600182028036833780820191505090505b5090505b600085146120cf5760018261205b9190613b8b565b9150600a8561206a9190613cbd565b60306120769190613780565b60f81b81838151811061208c5761208b613579565b5b60200101907effffffffffffffffffffffffffffffffffffffffffffffffffffffffffffff1916908160001a905350600a856120c89190613502565b9450612046565b8093505050505b919050565b60007f01ffc9a7000000000000000000000000000000000000000000000000000000007bffffffffffffffffffffffffffffffffffffffffffffffffffffffff1916827bffffffffffffffffffffffffffffffffffffffffffffffffffffffff1916149050919050565b61215083838361243e565b600073ffffffffffffffffffffffffffffffffffffffff168373ffffffffffffffffffffffffffffffffffffffff16036121925761218d81612443565b6121d1565b8173ffffffffffffffffffffffffffffffffffffffff168373ffffffffffffffffffffffffffffffffffffffff16146121d0576121cf838261248c565b5b5b600073ffffffffffffffffffffffffffffffffffffffff168273ffffffffffffffffffffffffffffffffffffffff16036122135761220e816125f9565b612252565b8273ffffffffffffffffffffffffffffffffffffffff168273ffffffffffffffffffffffffffffffffffffffff16146122515761225082826126ca565b5b5b505050565b505050565b6122668383612749565b61227360008484846122b7565b6122b2576040517f08c379a00000000000000000000000000000000000000000000000000000000081526004016122a990613c9d565b60405180910390fd5b505050565b60006122d88473ffffffffffffffffffffffffffffffffffffffff16612922565b15612431578373ffffffffffffffffffffffffffffffffffffffff1663150b7a02612301611815565b8786866040518563ffffffff1660e01b81526004016123239493929190613d43565b6020604051808303816000875af192505050801561235f57506040513d601f19601f8201168201806040525081019061235c9190613da4565b60015b6123e1573d806000811461238f576040519150601f19603f3d011682016040523d82523d6000602084013e612394565b606091505b5060008151036123d9576040517f08c379a00000000000000000000000000000000000000000000000000000000081526004016123d090613c9d565b60405180910390fd5b805181602001fd5b63150b7a0260e01b7bffffffffffffffffffffffffffffffffffffffffffffffffffffffff1916817bffffffffffffffffffffffffffffffffffffffffffffffffffffffff191614915050612436565b600190505b949350505050565b505050565b6008805490506009600083815260200190815260200160002081905550600881908060018154018082558091505060019003906000526020600020016000909190919091505550565b6000600161249984611001565b6124a39190613b8b565b9050600060076000848152602001908152602001600020549050818114612588576000600660008673ffffffffffffffffffffffffffffffffffffffff1673ffffffffffffffffffffffffffffffffffffffff168152602001908152602001600020600084815260200190815260200160002054905080600660008773ffffffffffffffffffffffffffffffffffffffff1673ffffffffffffffffffffffffffffffffffffffff168152602001908152602001600020600084815260200190815260200160002081905550816007600083815260200190815260200160002081905550505b6007600084815260200190815260200160002060009055600660008573ffffffffffffffffffffffffffffffffffffffff1673ffffffffffffffffffffffffffffffffffffffff16815260200190815260200160002060008381526020019081526020016000206000905550505050565b6000600160088054905061260d9190613b8b565b905060006009600084815260200190815260200160002054905060006008838154811061263d5761263c613579565b5b90600052602060002001549050806008838154811061265f5761265e613579565b5b9060005260206000200181905550816009600083815260200190815260200160002081905550600960008581526020019081526020016000206000905560088054806126ae576126ad613dd1565b5b6001900381819060005260206000200160009055905550505050565b60006126d583611001565b905081600660008573ffffffffffffffffffffffffffffffffffffffff1673ffffffffffffffffffffffffffffffffffffffff168152602001908152602001600020600083815260200190815260200160002081905550806007600084815260200190815260200160002081905550505050565b600073ffffffffffffffffffffffffffffffffffffffff168273ffffffffffffffffffffffffffffffffffffffff16036127b8576040517f08c379a00000000000000000000000000000000000000000000000000000000081526004016127af90613e4c565b60405180910390fd5b6127c181611e7d565b15612801576040517f08c379a00000000000000000000000000000000000000000000000000000000081526004016127f890613eb8565b60405180910390fd5b61280d60008383612145565b6001600360008473ffffffffffffffffffffffffffffffffffffffff1673ffffffffffffffffffffffffffffffffffffffff168152602001908152602001600020600082825461285d9190613780565b92505081905550816002600083815260200190815260200160002060006101000a81548173ffffffffffffffffffffffffffffffffffffffff021916908373ffffffffffffffffffffffffffffffffffffffff160217905550808273ffffffffffffffffffffffffffffffffffffffff16600073ffffffffffffffffffffffffffffffffffffffff167fddf252ad1be2c89b69c2b068fc378daa952ba7f163c4a11628f55a4df523b3ef60405160405180910390a461291e60008383612257565b5050565b6000808273ffffffffffffffffffffffffffffffffffffffff163b119050919050565b828054612951906131d1565b90600052602060002090601f01602090048101928261297357600085556129ba565b82601f1061298c57805160ff19168380011785556129ba565b828001600101855582156129ba579182015b828111156129b957825182559160200191906001019061299e565b5b5090506129c791906129cb565b5090565b5b808211156129e45760008160009055506001016129cc565b5090565b6000604051905090565b600080fd5b600080fd5b60007fffffffff0000000000000000000000000000000000000000000000000000000082169050919050565b612a31816129fc565b8114612a3c57600080fd5b50565b600081359050612a4e81612a28565b92915050565b600060208284031215612a6a57612a696129f2565b5b6000612a7884828501612a3f565b91505092915050565b60008115159050919050565b612a9681612a81565b82525050565b6000602082019050612ab16000830184612a8d565b92915050565b612ac081612a81565b8114612acb57600080fd5b50565b600081359050612add81612ab7565b92915050565b600060208284031215612af957612af86129f2565b5b6000612b0784828501612ace565b91505092915050565b600081519050919050565b600082825260208201905092915050565b60005b83811015612b4a578082015181840152602081019050612b2f565b83811115612b59576000848401525b50505050565b6000601f19601f8301169050919050565b6000612b7b82612b10565b612b858185612b1b565b9350612b95818560208601612b2c565b612b9e81612b5f565b840191505092915050565b60006020820190508181036000830152612bc38184612b70565b905092915050565b6000819050919050565b612bde81612bcb565b8114612be957600080fd5b50565b600081359050612bfb81612bd5565b92915050565b600060208284031215612c1757612c166129f2565b5b6000612c2584828501612bec565b91505092915050565b600073ffffffffffffffffffffffffffffffffffffffff82169050919050565b6000612c5982612c2e565b9050919050565b612c6981612c4e565b82525050565b6000602082019050612c846000830184612c60565b92915050565b612c9381612c4e565b8114612c9e57600080fd5b50565b600081359050612cb081612c8a565b92915050565b60008060408385031215612ccd57612ccc6129f2565b5b6000612cdb85828601612ca1565b9250506020612cec85828601612bec565b9150509250929050565b612cff81612bcb565b82525050565b6000602082019050612d1a6000830184612cf6565b92915050565b600080600060608486031215612d3957612d386129f2565b5b6000612d4786828701612ca1565b9350506020612d5886828701612ca1565b9250506040612d6986828701612bec565b9150509250925092565b600060208284031215612d8957612d886129f2565b5b6000612d9784828501612ca1565b91505092915050565b600081519050919050565b600082825260208201905092915050565b6000819050602082019050919050565b612dd581612bcb565b82525050565b6000612de78383612dcc565b60208301905092915050565b6000602082019050919050565b6000612e0b82612da0565b612e158185612dab565b9350612e2083612dbc565b8060005b83811015612e51578151612e388882612ddb565b9750612e4383612df3565b925050600181019050612e24565b5085935050505092915050565b60006020820190508181036000830152612e788184612e00565b905092915050565b600080fd5b600080fd5b7f4e487b7100000000000000000000000000000000000000000000000000000000600052604160045260246000fd5b612ec282612b5f565b810181811067ffffffffffffffff82111715612ee157612ee0612e8a565b5b80604052505050565b6000612ef46129e8565b9050612f008282612eb9565b919050565b600067ffffffffffffffff821115612f2057612f1f612e8a565b5b612f2982612b5f565b9050602081019050919050565b82818337600083830152505050565b6000612f58612f5384612f05565b612eea565b905082815260208101848484011115612f7457612f73612e85565b5b612f7f848285612f36565b509392505050565b600082601f830112612f9c57612f9b612e80565b5b8135612fac848260208601612f45565b91505092915050565b600060208284031215612fcb57612fca6129f2565b5b600082013567ffffffffffffffff811115612fe957612fe86129f7565b5b612ff584828501612f87565b91505092915050565b60008060408385031215613015576130146129f2565b5b600061302385828601612ca1565b925050602061303485828601612ace565b9150509250929050565b600067ffffffffffffffff82111561305957613058612e8a565b5b61306282612b5f565b9050602081019050919050565b600061308261307d8461303e565b612eea565b90508281526020810184848401111561309e5761309d612e85565b5b6130a9848285612f36565b509392505050565b600082601f8301126130c6576130c5612e80565b5b81356130d684826020860161306f565b91505092915050565b600080600080608085870312156130f9576130f86129f2565b5b600061310787828801612ca1565b945050602061311887828801612ca1565b935050604061312987828801612bec565b925050606085013567ffffffffffffffff81111561314a576131496129f7565b5b613156878288016130b1565b91505092959194509250565b60008060408385031215613179576131786129f2565b5b600061318785828601612ca1565b925050602061319885828601612ca1565b9150509250929050565b7f4e487b7100000000000000000000000000000000000000000000000000000000600052602260045260246000fd5b600060028204905060018216806131e957607f821691505b6020821081036131fc576131fb6131a2565b5b50919050565b7f4552433732313a20617070726f76616c20746f2063757272656e74206f776e6560008201527f7200000000000000000000000000000000000000000000000000000000000000602082015250565b600061325e602183612b1b565b915061326982613202565b604082019050919050565b6000602082019050818103600083015261328d81613251565b9050919050565b7f4552433732313a20617070726f76652063616c6c6572206973206e6f7420746f60008201527f6b656e206f776e6572206e6f7220617070726f76656420666f7220616c6c0000602082015250565b60006132f0603e83612b1b565b91506132fb82613294565b604082019050919050565b6000602082019050818103600083015261331f816132e3565b9050919050565b7f4552433732313a2063616c6c6572206973206e6f7420746f6b656e206f776e6560008201527f72206e6f7220617070726f766564000000000000000000000000000000000000602082015250565b6000613382602e83612b1b565b915061338d82613326565b604082019050919050565b600060208201905081810360008301526133b181613375565b9050919050565b7f455243373231456e756d657261626c653a206f776e657220696e646578206f7560008201527f74206f6620626f756e6473000000000000000000000000000000000000000000602082015250565b6000613414602b83612b1b565b915061341f826133b8565b604082019050919050565b6000602082019050818103600083015261344381613407565b9050919050565b7f4e487b7100000000000000000000000000000000000000000000000000000000600052601160045260246000fd5b600061348482612bcb565b915061348f83612bcb565b9250817fffffffffffffffffffffffffffffffffffffffffffffffffffffffffffffffff04831182151516156134c8576134c761344a565b5b828202905092915050565b7f4e487b7100000000000000000000000000000000000000000000000000000000600052601260045260246000fd5b600061350d82612bcb565b915061351883612bcb565b925082613528576135276134d3565b5b828204905092915050565b600081905092915050565b50565b600061354e600083613533565b91506135598261353e565b600082019050919050565b600061356f82613541565b9150819050919050565b7f4e487b7100000000000000000000000000000000000000000000000000000000600052603260045260246000fd5b60006135b382612bcb565b91507fffffffffffffffffffffffffffffffffffffffffffffffffffffffffffffffff82036135e5576135e461344a565b5b600182019050919050565b7f455243373231456e756d657261626c653a20676c6f62616c20696e646578206f60008201527f7574206f6620626f756e64730000000000000000000000000000000000000000602082015250565b600061364c602c83612b1b565b9150613657826135f0565b604082019050919050565b6000602082019050818103600083015261367b8161363f565b9050919050565b7f4552433732313a20696e76616c696420746f6b656e2049440000000000000000600082015250565b60006136b8601883612b1b565b91506136c382613682565b602082019050919050565b600060208201905081810360008301526136e7816136ab565b9050919050565b7f4552433732313a2061646472657373207a65726f206973206e6f74206120766160008201527f6c6964206f776e65720000000000000000000000000000000000000000000000602082015250565b600061374a602983612b1b565b9150613755826136ee565b604082019050919050565b600060208201905081810360008301526137798161373d565b9050919050565b600061378b82612bcb565b915061379683612bcb565b9250827fffffffffffffffffffffffffffffffffffffffffffffffffffffffffffffffff038211156137cb576137ca61344a565b5b828201905092915050565b7f4552433732314d657461646174613a2055524920717565727920666f72206e6f60008201527f6e6578697374656e7420746f6b656e0000000000000000000000000000000000602082015250565b6000613832602f83612b1b565b915061383d826137d6565b604082019050919050565b6000602082019050818103600083015261386181613825565b9050919050565b600081905092915050565b600061387e82612b10565b6138888185613868565b9350613898818560208601612b2c565b80840191505092915050565b60008190508160005260206000209050919050565b600081546138c6816131d1565b6138d08186613868565b945060018216600081146138eb57600181146138fc5761392f565b60ff1983168652818601935061392f565b613905856138a4565b60005b8381101561392757815481890152600182019150602081019050613908565b838801955050505b50505092915050565b60006139448286613873565b91506139508285613873565b915061395c82846138b9565b9150819050949350505050565b7f4f776e61626c653a206e6577206f776e657220697320746865207a65726f206160008201527f6464726573730000000000000000000000000000000000000000000000000000602082015250565b60006139c5602683612b1b565b91506139d082613969565b604082019050919050565b600060208201905081810360008301526139f4816139b8565b9050919050565b7f4f776e61626c653a2063616c6c6572206973206e6f7420746865206f776e6572600082015250565b6000613a31602083612b1b565b9150613a3c826139fb565b602082019050919050565b60006020820190508181036000830152613a6081613a24565b9050919050565b7f4552433732313a207472616e736665722066726f6d20696e636f72726563742060008201527f6f776e6572000000000000000000000000000000000000000000000000000000602082015250565b6000613ac3602583612b1b565b9150613ace82613a67565b604082019050919050565b60006020820190508181036000830152613af281613ab6565b9050919050565b7f4552433732313a207472616e7366657220746f20746865207a65726f2061646460008201527f7265737300000000000000000000000000000000000000000000000000000000602082015250565b6000613b55602483612b1b565b9150613b6082613af9565b604082019050919050565b60006020820190508181036000830152613b8481613b48565b9050919050565b6000613b9682612bcb565b9150613ba183612bcb565b925082821015613bb457613bb361344a565b5b828203905092915050565b7f4552433732313a20617070726f766520746f2063616c6c657200000000000000600082015250565b6000613bf5601983612b1b565b9150613c0082613bbf565b602082019050919050565b60006020820190508181036000830152613c2481613be8565b9050919050565b7f4552433732313a207472616e7366657220746f206e6f6e20455243373231526560008201527f63656976657220696d706c656d656e7465720000000000000000000000000000602082015250565b6000613c87603283612b1b565b9150613c9282613c2b565b604082019050919050565b60006020820190508181036000830152613cb681613c7a565b9050919050565b6000613cc882612bcb565b9150613cd383612bcb565b925082613ce357613ce26134d3565b5b828206905092915050565b600081519050919050565b600082825260208201905092915050565b6000613d1582613cee565b613d1f8185613cf9565b9350613d2f818560208601612b2c565b613d3881612b5f565b840191505092915050565b6000608082019050613d586000830187612c60565b613d656020830186612c60565b613d726040830185612cf6565b8181036060830152613d848184613d0a565b905095945050505050565b600081519050613d9e81612a28565b92915050565b600060208284031215613dba57613db96129f2565b5b6000613dc884828501613d8f565b91505092915050565b7f4e487b7100000000000000000000000000000000000000000000000000000000600052603160045260246000fd5b7f4552433732313a206d696e7420746f20746865207a65726f2061646472657373600082015250565b6000613e36602083612b1b565b9150613e4182613e00565b602082019050919050565b60006020820190508181036000830152613e6581613e29565b9050919050565b7f4552433732313a20746f6b656e20616c7265616479206d696e74656400000000600082015250565b6000613ea2601c83612b1b565b9150613ead82613e6c565b602082019050919050565b60006020820190508181036000830152613ed181613e95565b905091905056fea2646970667358221220647d400d7dae31168eb74d0470c3f3d33997a957e558949fdd60eb3038691d8964736f6c634300080e0033",
  "immutableReferences": {},
  "source": "// SPDX-License-Identifier: MIT\n\n// Amended by HashLips\n/**\n    !Disclaimer!\n    These contracts have been used to create tutorials,\n    and was created for the purpose to teach people\n    how to create smart contracts on the blockchain.\n    please review this code on your own before using any of\n    the following code for production.\n    HashLips will not be liable in any way if for the use \n    of the code. That being said, the code has been tested \n    to the best of the developers' knowledge to work as intended.\n*/\n\npragma solidity >=0.7.0 <0.9.0;\n\n\nimport \"../node_modules/@openzeppelin/contracts/token/ERC721/extensions/ERC721Enumerable.sol\";\nimport \"../node_modules/@openzeppelin/contracts/access/Ownable.sol\";\ncontract OnChainNFTPro is ERC721Enumerable, Ownable {\n  using Strings for uint256;\n\n  string baseURI;\n  string public baseExtension = \".json\";\n  uint256 public cost = 0.05 ether;\n  uint256 public maxSupply = 10000;\n  uint256 public maxMintAmount = 20;\n  bool public paused = false;\n  bool public revealed = false;\n  string public notRevealedUri;\n\n  constructor(\n  /*   string memory _name,\n    string memory _symbol, */\n /*    string memory _initBaseURI,\n    string memory _initNotRevealedUri */\n  ) ERC721(\"OnChainPixelartPro\",\"OCPP\") {\n/*     setBaseURI(_initBaseURI);\n    setNotRevealedURI(_initNotRevealedUri); */\n  }\n\n  // internal\n  function _baseURI() internal view virtual override returns (string memory) {\n    return baseURI;\n  }\n\n  // public\n  function mint(uint256 _mintAmount) public payable {\n    uint256 supply = totalSupply();\n    require(!paused);\n    require(_mintAmount > 0);\n    require(_mintAmount <= maxMintAmount);\n    require(supply + _mintAmount <= maxSupply);\n\n    if (msg.sender != owner()) {\n      require(msg.value >= cost * _mintAmount);\n    }\n\n    for (uint256 i = 1; i <= _mintAmount; i++) {\n      _safeMint(msg.sender, supply + i);\n    }\n  }\n\n  function walletOfOwner(address _owner)\n    public\n    view\n    returns (uint256[] memory)\n  {\n    uint256 ownerTokenCount = balanceOf(_owner);\n    uint256[] memory tokenIds = new uint256[](ownerTokenCount);\n    for (uint256 i; i < ownerTokenCount; i++) {\n      tokenIds[i] = tokenOfOwnerByIndex(_owner, i);\n    }\n    return tokenIds;\n  }\n\n  function tokenURI(uint256 tokenId)\n    public\n    view\n    virtual\n    override\n    returns (string memory)\n  {\n    require(\n      _exists(tokenId),\n      \"ERC721Metadata: URI query for nonexistent token\"\n    );\n    \n    if(revealed == false) {\n        return notRevealedUri;\n    }\n\n    string memory currentBaseURI = _baseURI();\n    return bytes(currentBaseURI).length > 0\n        ? string(abi.encodePacked(currentBaseURI, tokenId.toString(), baseExtension))\n        : \"\";\n  }\n\n  //only owner\n  function reveal() public onlyOwner {\n      revealed = true;\n  }\n  \n  function setCost(uint256 _newCost) public onlyOwner {\n    cost = _newCost;\n  }\n\n  function setmaxMintAmount(uint256 _newmaxMintAmount) public onlyOwner {\n    maxMintAmount = _newmaxMintAmount;\n  }\n  \n  function setNotRevealedURI(string memory _notRevealedURI) public onlyOwner {\n    notRevealedUri = _notRevealedURI;\n  }\n\n  function setBaseURI(string memory _newBaseURI) public onlyOwner {\n    baseURI = _newBaseURI;\n  }\n\n  function setBaseExtension(string memory _newBaseExtension) public onlyOwner {\n    baseExtension = _newBaseExtension;\n  }\n\n  function pause(bool _state) public onlyOwner {\n    paused = _state;\n  }\n \n  function withdraw() public payable onlyOwner {\n    // This will pay HashLips 5% of the initial sale.\n    // You can remove this if you want, or keep it in to support HashLips and his channel.\n    // =============================================================================\n    (bool hs, ) = payable(0x943590A42C27D08e3744202c4Ae5eD55c2dE240D).call{value: address(this).balance * 5 / 100}(\"\");\n    require(hs);\n    // =============================================================================\n    \n    // This will payout the owner 95% of the contract balance.\n    // Do not remove this otherwise you will not be able to withdraw the funds.\n    // =============================================================================\n    (bool os, ) = payable(owner()).call{value: address(this).balance}(\"\");\n    require(os);\n    // =============================================================================\n  }\n}",
  "sourcePath": "/home/bruh/Desktop/solidity_projects/crypto_pixel_art_creator/truffle/contracts/OnChainNFTPro.sol",
  "compiler": {
    "name": "solc",
    "version": "0.8.14+commit.80d49f37.Emscripten.clang"
  },
  "schemaVersion": "3.4.7",
  "updatedAt": "2022-09-14T23:55:39.213Z",
  "networkType": "ethereum",
  "devdoc": {
    "kind": "dev",
    "methods": {
      "approve(address,uint256)": {
        "details": "See {IERC721-approve}."
      },
      "balanceOf(address)": {
        "details": "See {IERC721-balanceOf}."
      },
      "getApproved(uint256)": {
        "details": "See {IERC721-getApproved}."
      },
      "isApprovedForAll(address,address)": {
        "details": "See {IERC721-isApprovedForAll}."
      },
      "name()": {
        "details": "See {IERC721Metadata-name}."
      },
      "owner()": {
        "details": "Returns the address of the current owner."
      },
      "ownerOf(uint256)": {
        "details": "See {IERC721-ownerOf}."
      },
      "renounceOwnership()": {
        "details": "Leaves the contract without owner. It will not be possible to call `onlyOwner` functions anymore. Can only be called by the current owner. NOTE: Renouncing ownership will leave the contract without an owner, thereby removing any functionality that is only available to the owner."
      },
      "safeTransferFrom(address,address,uint256)": {
        "details": "See {IERC721-safeTransferFrom}."
      },
      "safeTransferFrom(address,address,uint256,bytes)": {
        "details": "See {IERC721-safeTransferFrom}."
      },
      "setApprovalForAll(address,bool)": {
        "details": "See {IERC721-setApprovalForAll}."
      },
      "supportsInterface(bytes4)": {
        "details": "See {IERC165-supportsInterface}."
      },
      "symbol()": {
        "details": "See {IERC721Metadata-symbol}."
      },
      "tokenByIndex(uint256)": {
        "details": "See {IERC721Enumerable-tokenByIndex}."
      },
      "tokenOfOwnerByIndex(address,uint256)": {
        "details": "See {IERC721Enumerable-tokenOfOwnerByIndex}."
      },
      "tokenURI(uint256)": {
        "details": "See {IERC721Metadata-tokenURI}."
      },
      "totalSupply()": {
        "details": "See {IERC721Enumerable-totalSupply}."
      },
      "transferFrom(address,address,uint256)": {
        "details": "See {IERC721-transferFrom}."
      },
      "transferOwnership(address)": {
        "details": "Transfers ownership of the contract to a new account (`newOwner`). Can only be called by the current owner."
      }
    },
    "version": 1
  },
  "userdoc": {
    "kind": "user",
    "methods": {},
    "version": 1
  }
}