{
  "contractName": "OnChainNFT",
  "abi": [
    {
      "inputs": [],
      "stateMutability": "payable",
      "type": "constructor"
    },
    {
      "anonymous": false,
      "inputs": [
        {
          "indexed": true,
          "internalType": "address",
          "name": "owner",
          "type": "address"
        },
        {
          "indexed": true,
          "internalType": "address",
          "name": "approved",
          "type": "address"
        },
        {
          "indexed": true,
          "internalType": "uint256",
          "name": "tokenId",
          "type": "uint256"
        }
      ],
      "name": "Approval",
      "type": "event"
    },
    {
      "anonymous": false,
      "inputs": [
        {
          "indexed": true,
          "internalType": "address",
          "name": "owner",
          "type": "address"
        },
        {
          "indexed": true,
          "internalType": "address",
          "name": "operator",
          "type": "address"
        },
        {
          "indexed": false,
          "internalType": "bool",
          "name": "approved",
          "type": "bool"
        }
      ],
      "name": "ApprovalForAll",
      "type": "event"
    },
    {
      "anonymous": false,
      "inputs": [
        {
          "indexed": true,
          "internalType": "address",
          "name": "previousOwner",
          "type": "address"
        },
        {
          "indexed": true,
          "internalType": "address",
          "name": "newOwner",
          "type": "address"
        }
      ],
      "name": "OwnershipTransferred",
      "type": "event"
    },
    {
      "anonymous": false,
      "inputs": [
        {
          "indexed": true,
          "internalType": "address",
          "name": "from",
          "type": "address"
        },
        {
          "indexed": true,
          "internalType": "address",
          "name": "to",
          "type": "address"
        },
        {
          "indexed": true,
          "internalType": "uint256",
          "name": "tokenId",
          "type": "uint256"
        }
      ],
      "name": "Transfer",
      "type": "event"
    },
    {
      "inputs": [
        {
          "internalType": "address",
          "name": "to",
          "type": "address"
        },
        {
          "internalType": "uint256",
          "name": "tokenId",
          "type": "uint256"
        }
      ],
      "name": "approve",
      "outputs": [],
      "stateMutability": "nonpayable",
      "type": "function"
    },
    {
      "inputs": [
        {
          "internalType": "address",
          "name": "owner",
          "type": "address"
        }
      ],
      "name": "balanceOf",
      "outputs": [
        {
          "internalType": "uint256",
          "name": "",
          "type": "uint256"
        }
      ],
      "stateMutability": "view",
      "type": "function"
    },
    {
      "inputs": [
        {
          "internalType": "uint256",
          "name": "tokenId",
          "type": "uint256"
        }
      ],
      "name": "getApproved",
      "outputs": [
        {
          "internalType": "address",
          "name": "",
          "type": "address"
        }
      ],
      "stateMutability": "view",
      "type": "function"
    },
    {
      "inputs": [
        {
          "internalType": "address",
          "name": "owner",
          "type": "address"
        },
        {
          "internalType": "address",
          "name": "operator",
          "type": "address"
        }
      ],
      "name": "isApprovedForAll",
      "outputs": [
        {
          "internalType": "bool",
          "name": "",
          "type": "bool"
        }
      ],
      "stateMutability": "view",
      "type": "function"
    },
    {
      "inputs": [],
      "name": "isMintEnabled",
      "outputs": [
        {
          "internalType": "bool",
          "name": "",
          "type": "bool"
        }
      ],
      "stateMutability": "view",
      "type": "function"
    },
    {
      "inputs": [],
      "name": "maxSupply",
      "outputs": [
        {
          "internalType": "uint256",
          "name": "",
          "type": "uint256"
        }
      ],
      "stateMutability": "view",
      "type": "function"
    },
    {
      "inputs": [],
      "name": "mintPrice",
      "outputs": [
        {
          "internalType": "uint256",
          "name": "",
          "type": "uint256"
        }
      ],
      "stateMutability": "view",
      "type": "function"
    },
    {
      "inputs": [
        {
          "internalType": "address",
          "name": "",
          "type": "address"
        }
      ],
      "name": "mintedWallets",
      "outputs": [
        {
          "internalType": "uint256",
          "name": "",
          "type": "uint256"
        }
      ],
      "stateMutability": "view",
      "type": "function"
    },
    {
      "inputs": [],
      "name": "name",
      "outputs": [
        {
          "internalType": "string",
          "name": "",
          "type": "string"
        }
      ],
      "stateMutability": "view",
      "type": "function"
    },
    {
      "inputs": [],
      "name": "owner",
      "outputs": [
        {
          "internalType": "address",
          "name": "",
          "type": "address"
        }
      ],
      "stateMutability": "view",
      "type": "function"
    },
    {
      "inputs": [
        {
          "internalType": "uint256",
          "name": "tokenId",
          "type": "uint256"
        }
      ],
      "name": "ownerOf",
      "outputs": [
        {
          "internalType": "address",
          "name": "",
          "type": "address"
        }
      ],
      "stateMutability": "view",
      "type": "function"
    },
    {
      "inputs": [],
      "name": "renounceOwnership",
      "outputs": [],
      "stateMutability": "nonpayable",
      "type": "function"
    },
    {
      "inputs": [
        {
          "internalType": "address",
          "name": "from",
          "type": "address"
        },
        {
          "internalType": "address",
          "name": "to",
          "type": "address"
        },
        {
          "internalType": "uint256",
          "name": "tokenId",
          "type": "uint256"
        }
      ],
      "name": "safeTransferFrom",
      "outputs": [],
      "stateMutability": "nonpayable",
      "type": "function"
    },
    {
      "inputs": [
        {
          "internalType": "address",
          "name": "from",
          "type": "address"
        },
        {
          "internalType": "address",
          "name": "to",
          "type": "address"
        },
        {
          "internalType": "uint256",
          "name": "tokenId",
          "type": "uint256"
        },
        {
          "internalType": "bytes",
          "name": "data",
          "type": "bytes"
        }
      ],
      "name": "safeTransferFrom",
      "outputs": [],
      "stateMutability": "nonpayable",
      "type": "function"
    },
    {
      "inputs": [
        {
          "internalType": "address",
          "name": "operator",
          "type": "address"
        },
        {
          "internalType": "bool",
          "name": "approved",
          "type": "bool"
        }
      ],
      "name": "setApprovalForAll",
      "outputs": [],
      "stateMutability": "nonpayable",
      "type": "function"
    },
    {
      "inputs": [
        {
          "internalType": "bytes4",
          "name": "interfaceId",
          "type": "bytes4"
        }
      ],
      "name": "supportsInterface",
      "outputs": [
        {
          "internalType": "bool",
          "name": "",
          "type": "bool"
        }
      ],
      "stateMutability": "view",
      "type": "function"
    },
    {
      "inputs": [],
      "name": "symbol",
      "outputs": [
        {
          "internalType": "string",
          "name": "",
          "type": "string"
        }
      ],
      "stateMutability": "view",
      "type": "function"
    },
    {
      "inputs": [
        {
          "internalType": "uint256",
          "name": "tokenId",
          "type": "uint256"
        }
      ],
      "name": "tokenURI",
      "outputs": [
        {
          "internalType": "string",
          "name": "",
          "type": "string"
        }
      ],
      "stateMutability": "view",
      "type": "function"
    },
    {
      "inputs": [],
      "name": "totalSupply",
      "outputs": [
        {
          "internalType": "uint256",
          "name": "",
          "type": "uint256"
        }
      ],
      "stateMutability": "view",
      "type": "function"
    },
    {
      "inputs": [
        {
          "internalType": "address",
          "name": "from",
          "type": "address"
        },
        {
          "internalType": "address",
          "name": "to",
          "type": "address"
        },
        {
          "internalType": "uint256",
          "name": "tokenId",
          "type": "uint256"
        }
      ],
      "name": "transferFrom",
      "outputs": [],
      "stateMutability": "nonpayable",
      "type": "function"
    },
    {
      "inputs": [
        {
          "internalType": "address",
          "name": "newOwner",
          "type": "address"
        }
      ],
      "name": "transferOwnership",
      "outputs": [],
      "stateMutability": "nonpayable",
      "type": "function"
    },
    {
      "inputs": [],
      "name": "withdrawWallet",
      "outputs": [
        {
          "internalType": "address payable",
          "name": "",
          "type": "address"
        }
      ],
      "stateMutability": "view",
      "type": "function"
    },
    {
      "inputs": [
        {
          "internalType": "bool",
          "name": "isMintEnabled_",
          "type": "bool"
        }
      ],
      "name": "toggleIsMintEnabled",
      "outputs": [],
      "stateMutability": "nonpayable",
      "type": "function"
    },
    {
      "inputs": [
        {
          "internalType": "uint256",
          "name": "maxSupply_",
          "type": "uint256"
        }
      ],
      "name": "setMaxSupply",
      "outputs": [],
      "stateMutability": "nonpayable",
      "type": "function"
    },
    {
      "inputs": [
        {
          "internalType": "string",
          "name": "name",
          "type": "string"
        },
        {
          "internalType": "string",
          "name": "description",
          "type": "string"
        },
        {
          "internalType": "string",
          "name": "imageURI",
          "type": "string"
        }
      ],
      "name": "formatTokenURI",
      "outputs": [
        {
          "internalType": "string",
          "name": "",
          "type": "string"
        }
      ],
      "stateMutability": "pure",
      "type": "function"
    },
    {
      "inputs": [
        {
          "internalType": "string",
          "name": "name",
          "type": "string"
        },
        {
          "internalType": "string",
          "name": "description",
          "type": "string"
        },
        {
          "internalType": "string",
          "name": "imageURI",
          "type": "string"
        }
      ],
      "name": "mint",
      "outputs": [],
      "stateMutability": "payable",
      "type": "function"
    },
    {
      "inputs": [],
      "name": "withdraw",
      "outputs": [],
      "stateMutability": "payable",
      "type": "function"
    }
  ],
  "bytecode": "0x60806040526001600b60006101000a81548160ff0219169083151502179055506040518060400160405280600f81526020017f4f6e436861696e506978656c61727400000000000000000000000000000000008152506040518060400160405280600381526020017f4f4e5000000000000000000000000000000000000000000000000000000000008152508160009080519060200190620000a3929190620001d2565b508060019080519060200190620000bc929190620001d2565b505050620000df620000d36200010460201b60201c565b6200010c60201b60201c565b66038d7ea4c6800060088190555060006009819055506103e7600a81905550620002e6565b600033905090565b6000600760009054906101000a900473ffffffffffffffffffffffffffffffffffffffff16905081600760006101000a81548173ffffffffffffffffffffffffffffffffffffffff021916908373ffffffffffffffffffffffffffffffffffffffff1602179055508173ffffffffffffffffffffffffffffffffffffffff168173ffffffffffffffffffffffffffffffffffffffff167f8be0079c531659141344cd1fd0a4f28419497f9722a3daafe3b4186f6b6457e060405160405180910390a35050565b828054620001e090620002b1565b90600052602060002090601f01602090048101928262000204576000855562000250565b82601f106200021f57805160ff191683800117855562000250565b8280016001018555821562000250579182015b828111156200024f57825182559160200191906001019062000232565b5b5090506200025f919062000263565b5090565b5b808211156200027e57600081600090555060010162000264565b5090565b7f4e487b7100000000000000000000000000000000000000000000000000000000600052602260045260246000fd5b60006002820490506001821680620002ca57607f821691505b602082108103620002e057620002df62000282565b5b50919050565b613a1880620002f66000396000f3fe60806040526004361061019c5760003560e01c806370a08231116100ec578063b88d4fde1161008a578063d645ddf611610064578063d645ddf6146105a7578063e985e9c5146105c3578063f2fde38b14610600578063fd39f11e146106295761019c565b8063b88d4fde14610516578063c87b56dd1461053f578063d5abeb011461057c5761019c565b80638da5cb5b116100c65780638da5cb5b1461045a57806395d89b4114610485578063a22cb465146104b0578063ada7c4ed146104d95761019c565b806370a08231146103db578063715018a61461041857806385d178f41461042f5761019c565b8063346de50a11610159578063529eb6a811610133578063529eb6a8146103215780636352211e1461034a5780636817c76c146103875780636f8b44b0146103b25761019c565b8063346de50a146102c35780633ccfd60b146102ee57806342842e0e146102f85761019c565b806301ffc9a7146101a157806306fdde03146101de578063081812fc14610209578063095ea7b31461024657806318160ddd1461026f57806323b872dd1461029a575b600080fd5b3480156101ad57600080fd5b506101c860048036038101906101c3919061238e565b610666565b6040516101d591906123d6565b60405180910390f35b3480156101ea57600080fd5b506101f3610748565b604051610200919061248a565b60405180910390f35b34801561021557600080fd5b50610230600480360381019061022b91906124e2565b6107da565b60405161023d9190612550565b60405180910390f35b34801561025257600080fd5b5061026d60048036038101906102689190612597565b610820565b005b34801561027b57600080fd5b50610284610937565b60405161029191906125e6565b60405180910390f35b3480156102a657600080fd5b506102c160048036038101906102bc9190612601565b61093d565b005b3480156102cf57600080fd5b506102d861099d565b6040516102e591906123d6565b60405180910390f35b6102f66109b0565b005b34801561030457600080fd5b5061031f600480360381019061031a9190612601565b610a38565b005b34801561032d57600080fd5b5061034860048036038101906103439190612680565b610a58565b005b34801561035657600080fd5b50610371600480360381019061036c91906124e2565b610a7d565b60405161037e9190612550565b60405180910390f35b34801561039357600080fd5b5061039c610b2e565b6040516103a991906125e6565b60405180910390f35b3480156103be57600080fd5b506103d960048036038101906103d491906124e2565b610b34565b005b3480156103e757600080fd5b5061040260048036038101906103fd91906126ad565b610b46565b60405161040f91906125e6565b60405180910390f35b34801561042457600080fd5b5061042d610bfd565b005b34801561043b57600080fd5b50610444610c11565b60405161045191906126fb565b60405180910390f35b34801561046657600080fd5b5061046f610c37565b60405161047c9190612550565b60405180910390f35b34801561049157600080fd5b5061049a610c61565b6040516104a7919061248a565b60405180910390f35b3480156104bc57600080fd5b506104d760048036038101906104d29190612716565b610cf3565b005b3480156104e557600080fd5b5061050060048036038101906104fb91906126ad565b610d09565b60405161050d91906125e6565b60405180910390f35b34801561052257600080fd5b5061053d6004803603810190610538919061288b565b610d21565b005b34801561054b57600080fd5b50610566600480360381019061056191906124e2565b610d83565b604051610573919061248a565b60405180910390f35b34801561058857600080fd5b50610591610e95565b60405161059e91906125e6565b60405180910390f35b6105c160048036038101906105bc91906129af565b610e9b565b005b3480156105cf57600080fd5b506105ea60048036038101906105e59190612a56565b611094565b6040516105f791906123d6565b60405180910390f35b34801561060c57600080fd5b50610627600480360381019061062291906126ad565b611128565b005b34801561063557600080fd5b50610650600480360381019061064b91906129af565b6111ab565b60405161065d919061248a565b60405180910390f35b60007f80ac58cd000000000000000000000000000000000000000000000000000000007bffffffffffffffffffffffffffffffffffffffffffffffffffffffff1916827bffffffffffffffffffffffffffffffffffffffffffffffffffffffff1916148061073157507f5b5e139f000000000000000000000000000000000000000000000000000000007bffffffffffffffffffffffffffffffffffffffffffffffffffffffff1916827bffffffffffffffffffffffffffffffffffffffffffffffffffffffff1916145b8061074157506107408261121c565b5b9050919050565b60606000805461075790612ac5565b80601f016020809104026020016040519081016040528092919081815260200182805461078390612ac5565b80156107d05780601f106107a5576101008083540402835291602001916107d0565b820191906000526020600020905b8154815290600101906020018083116107b357829003601f168201915b5050505050905090565b60006107e582611286565b6004600083815260200190815260200160002060009054906101000a900473ffffffffffffffffffffffffffffffffffffffff169050919050565b600061082b82610a7d565b90508073ffffffffffffffffffffffffffffffffffffffff168373ffffffffffffffffffffffffffffffffffffffff160361089b576040517f08c379a000000000000000000000000000000000000000000000000000000000815260040161089290612b68565b60405180910390fd5b8073ffffffffffffffffffffffffffffffffffffffff166108ba6112d1565b73ffffffffffffffffffffffffffffffffffffffff1614806108e957506108e8816108e36112d1565b611094565b5b610928576040517f08c379a000000000000000000000000000000000000000000000000000000000815260040161091f90612bfa565b60405180910390fd5b61093283836112d9565b505050565b60095481565b61094e6109486112d1565b82611392565b61098d576040517f08c379a000000000000000000000000000000000000000000000000000000000815260040161098490612c8c565b60405180910390fd5b610998838383611427565b505050565b600b60009054906101000a900460ff1681565b6109b861168d565b60006109c2610c37565b73ffffffffffffffffffffffffffffffffffffffff16476040516109e590612cdd565b60006040518083038185875af1925050503d8060008114610a22576040519150601f19603f3d011682016040523d82523d6000602084013e610a27565b606091505b5050905080610a3557600080fd5b50565b610a5383838360405180602001604052806000815250610d21565b505050565b610a6061168d565b80600b60006101000a81548160ff02191690831515021790555050565b6000806002600084815260200190815260200160002060009054906101000a900473ffffffffffffffffffffffffffffffffffffffff169050600073ffffffffffffffffffffffffffffffffffffffff168173ffffffffffffffffffffffffffffffffffffffff1603610b25576040517f08c379a0000000000000000000000000000000000000000000000000000000008152600401610b1c90612d3e565b60405180910390fd5b80915050919050565b60085481565b610b3c61168d565b80600a8190555050565b60008073ffffffffffffffffffffffffffffffffffffffff168273ffffffffffffffffffffffffffffffffffffffff1603610bb6576040517f08c379a0000000000000000000000000000000000000000000000000000000008152600401610bad90612dd0565b60405180910390fd5b600360008373ffffffffffffffffffffffffffffffffffffffff1673ffffffffffffffffffffffffffffffffffffffff168152602001908152602001600020549050919050565b610c0561168d565b610c0f600061170b565b565b600b60019054906101000a900473ffffffffffffffffffffffffffffffffffffffff1681565b6000600760009054906101000a900473ffffffffffffffffffffffffffffffffffffffff16905090565b606060018054610c7090612ac5565b80601f0160208091040260200160405190810160405280929190818152602001828054610c9c90612ac5565b8015610ce95780601f10610cbe57610100808354040283529160200191610ce9565b820191906000526020600020905b815481529060010190602001808311610ccc57829003601f168201915b5050505050905090565b610d05610cfe6112d1565b83836117d1565b5050565b600c6020528060005260406000206000915090505481565b610d32610d2c6112d1565b83611392565b610d71576040517f08c379a0000000000000000000000000000000000000000000000000000000008152600401610d6890612c8c565b60405180910390fd5b610d7d8484848461193d565b50505050565b6060610d8e82611286565b6000600660008481526020019081526020016000208054610dae90612ac5565b80601f0160208091040260200160405190810160405280929190818152602001828054610dda90612ac5565b8015610e275780601f10610dfc57610100808354040283529160200191610e27565b820191906000526020600020905b815481529060010190602001808311610e0a57829003601f168201915b505050505090506000610e38611999565b90506000815103610e4d578192505050610e90565b600082511115610e82578082604051602001610e6a929190612e2c565b60405160208183030381529060405292505050610e90565b610e8b846119b0565b925050505b919050565b600a5481565b600b60009054906101000a900460ff16610eea576040517f08c379a0000000000000000000000000000000000000000000000000000000008152600401610ee190612e9c565b60405180910390fd5b600a600c60003373ffffffffffffffffffffffffffffffffffffffff1673ffffffffffffffffffffffffffffffffffffffff1681526020019081526020016000205410610f6c576040517f08c379a0000000000000000000000000000000000000000000000000000000008152600401610f6390612f08565b60405180910390fd5b6008543414610fb0576040517f08c379a0000000000000000000000000000000000000000000000000000000008152600401610fa790612f74565b60405180910390fd5b600954600a5411610ff6576040517f08c379a0000000000000000000000000000000000000000000000000000000008152600401610fed90612fe0565b60405180910390fd5b600c60003373ffffffffffffffffffffffffffffffffffffffff1673ffffffffffffffffffffffffffffffffffffffff16815260200190815260200160002060008154809291906110469061302f565b91905055506009600081548092919061105e9061302f565b919050555060006110708484846111ab565b9050600060095490506110833382611a18565b61108d8183611a36565b5050505050565b6000600560008473ffffffffffffffffffffffffffffffffffffffff1673ffffffffffffffffffffffffffffffffffffffff16815260200190815260200160002060008373ffffffffffffffffffffffffffffffffffffffff1673ffffffffffffffffffffffffffffffffffffffff16815260200190815260200160002060009054906101000a900460ff16905092915050565b61113061168d565b600073ffffffffffffffffffffffffffffffffffffffff168173ffffffffffffffffffffffffffffffffffffffff160361119f576040517f08c379a0000000000000000000000000000000000000000000000000000000008152600401611196906130e9565b60405180910390fd5b6111a88161170b565b50565b60606111f484846111ba611aaa565b856111c3611acf565b6111cb611b11565b6040516020016111e0969594939291906131ed565b604051602081830303815290604052611b53565b60405160200161120491906132b2565b60405160208183030381529060405290509392505050565b60007f01ffc9a7000000000000000000000000000000000000000000000000000000007bffffffffffffffffffffffffffffffffffffffffffffffffffffffff1916827bffffffffffffffffffffffffffffffffffffffffffffffffffffffff1916149050919050565b61128f81611ccb565b6112ce576040517f08c379a00000000000000000000000000000000000000000000000000000000081526004016112c590612d3e565b60405180910390fd5b50565b600033905090565b816004600083815260200190815260200160002060006101000a81548173ffffffffffffffffffffffffffffffffffffffff021916908373ffffffffffffffffffffffffffffffffffffffff160217905550808273ffffffffffffffffffffffffffffffffffffffff1661134c83610a7d565b73ffffffffffffffffffffffffffffffffffffffff167f8c5be1e5ebec7d5bd14f71427d1e84f3dd0314c0f7b2291e5b200ac8c7c3b92560405160405180910390a45050565b60008061139e83610a7d565b90508073ffffffffffffffffffffffffffffffffffffffff168473ffffffffffffffffffffffffffffffffffffffff1614806113e057506113df8185611094565b5b8061141e57508373ffffffffffffffffffffffffffffffffffffffff16611406846107da565b73ffffffffffffffffffffffffffffffffffffffff16145b91505092915050565b8273ffffffffffffffffffffffffffffffffffffffff1661144782610a7d565b73ffffffffffffffffffffffffffffffffffffffff161461149d576040517f08c379a000000000000000000000000000000000000000000000000000000000815260040161149490613346565b60405180910390fd5b600073ffffffffffffffffffffffffffffffffffffffff168273ffffffffffffffffffffffffffffffffffffffff160361150c576040517f08c379a0000000000000000000000000000000000000000000000000000000008152600401611503906133d8565b60405180910390fd5b611517838383611d37565b6115226000826112d9565b6001600360008573ffffffffffffffffffffffffffffffffffffffff1673ffffffffffffffffffffffffffffffffffffffff168152602001908152602001600020600082825461157291906133f8565b925050819055506001600360008473ffffffffffffffffffffffffffffffffffffffff1673ffffffffffffffffffffffffffffffffffffffff16815260200190815260200160002060008282546115c9919061342c565b92505081905550816002600083815260200190815260200160002060006101000a81548173ffffffffffffffffffffffffffffffffffffffff021916908373ffffffffffffffffffffffffffffffffffffffff160217905550808273ffffffffffffffffffffffffffffffffffffffff168473ffffffffffffffffffffffffffffffffffffffff167fddf252ad1be2c89b69c2b068fc378daa952ba7f163c4a11628f55a4df523b3ef60405160405180910390a4611688838383611d3c565b505050565b6116956112d1565b73ffffffffffffffffffffffffffffffffffffffff166116b3610c37565b73ffffffffffffffffffffffffffffffffffffffff1614611709576040517f08c379a0000000000000000000000000000000000000000000000000000000008152600401611700906134ce565b60405180910390fd5b565b6000600760009054906101000a900473ffffffffffffffffffffffffffffffffffffffff16905081600760006101000a81548173ffffffffffffffffffffffffffffffffffffffff021916908373ffffffffffffffffffffffffffffffffffffffff1602179055508173ffffffffffffffffffffffffffffffffffffffff168173ffffffffffffffffffffffffffffffffffffffff167f8be0079c531659141344cd1fd0a4f28419497f9722a3daafe3b4186f6b6457e060405160405180910390a35050565b8173ffffffffffffffffffffffffffffffffffffffff168373ffffffffffffffffffffffffffffffffffffffff160361183f576040517f08c379a00000000000000000000000000000000000000000000000000000000081526004016118369061353a565b60405180910390fd5b80600560008573ffffffffffffffffffffffffffffffffffffffff1673ffffffffffffffffffffffffffffffffffffffff16815260200190815260200160002060008473ffffffffffffffffffffffffffffffffffffffff1673ffffffffffffffffffffffffffffffffffffffff16815260200190815260200160002060006101000a81548160ff0219169083151502179055508173ffffffffffffffffffffffffffffffffffffffff168373ffffffffffffffffffffffffffffffffffffffff167f17307eab39ab6107e8899845ad3d59bd9653f200f220920489ca2b5937696c318360405161193091906123d6565b60405180910390a3505050565b611948848484611427565b61195484848484611d41565b611993576040517f08c379a000000000000000000000000000000000000000000000000000000000815260040161198a906135cc565b60405180910390fd5b50505050565b606060405180602001604052806000815250905090565b60606119bb82611286565b60006119c5611999565b905060008151116119e55760405180602001604052806000815250611a10565b806119ef84611ec8565b604051602001611a00929190612e2c565b6040516020818303038152906040525b915050919050565b611a32828260405180602001604052806000815250612028565b5050565b611a3f82611ccb565b611a7e576040517f08c379a0000000000000000000000000000000000000000000000000000000008152600401611a759061365e565b60405180910390fd5b80600660008481526020019081526020016000209080519060200190611aa592919061227f565b505050565b6060806040518060800160405280604f8152602001613994604f913990508091505090565b6060806040518060400160405280601181526020017f273e3c2f696d6167653e203c2f7376673e00000000000000000000000000000081525090508091505090565b6060806040518060400160405280600281526020017f227d00000000000000000000000000000000000000000000000000000000000081525090508091505090565b60606000825103611b7557604051806020016040528060008152509050611cc6565b60006040518060600160405280604081526020016139546040913990506000600360028551611ba4919061342c565b611bae91906136ad565b6004611bba91906136de565b90506000602082611bcb919061342c565b67ffffffffffffffff811115611be457611be3612760565b5b6040519080825280601f01601f191660200182016040528015611c165781602001600182028036833780820191505090505b509050818152600183018586518101602084015b81831015611c85576003830192508251603f8160121c168501518253600182019150603f81600c1c168501518253600182019150603f8160061c168501518253600182019150603f8116850151825360018201915050611c2a565b600389510660018114611c9f5760028114611caf57611cba565b613d3d60f01b6002830352611cba565b603d60f81b60018303525b50505050508093505050505b919050565b60008073ffffffffffffffffffffffffffffffffffffffff166002600084815260200190815260200160002060009054906101000a900473ffffffffffffffffffffffffffffffffffffffff1673ffffffffffffffffffffffffffffffffffffffff1614159050919050565b505050565b505050565b6000611d628473ffffffffffffffffffffffffffffffffffffffff16612083565b15611ebb578373ffffffffffffffffffffffffffffffffffffffff1663150b7a02611d8b6112d1565b8786866040518563ffffffff1660e01b8152600401611dad949392919061378d565b6020604051808303816000875af1925050508015611de957506040513d601f19601f82011682018060405250810190611de691906137ee565b60015b611e6b573d8060008114611e19576040519150601f19603f3d011682016040523d82523d6000602084013e611e1e565b606091505b506000815103611e63576040517f08c379a0000000000000000000000000000000000000000000000000000000008152600401611e5a906135cc565b60405180910390fd5b805181602001fd5b63150b7a0260e01b7bffffffffffffffffffffffffffffffffffffffffffffffffffffffff1916817bffffffffffffffffffffffffffffffffffffffffffffffffffffffff191614915050611ec0565b600190505b949350505050565b606060008203611f0f576040518060400160405280600181526020017f30000000000000000000000000000000000000000000000000000000000000008152509050612023565b600082905060005b60008214611f41578080611f2a9061302f565b915050600a82611f3a91906136ad565b9150611f17565b60008167ffffffffffffffff811115611f5d57611f5c612760565b5b6040519080825280601f01601f191660200182016040528015611f8f5781602001600182028036833780820191505090505b5090505b6000851461201c57600182611fa891906133f8565b9150600a85611fb7919061381b565b6030611fc3919061342c565b60f81b818381518110611fd957611fd861384c565b5b60200101907effffffffffffffffffffffffffffffffffffffffffffffffffffffffffffff1916908160001a905350600a8561201591906136ad565b9450611f93565b8093505050505b919050565b61203283836120a6565b61203f6000848484611d41565b61207e576040517f08c379a0000000000000000000000000000000000000000000000000000000008152600401612075906135cc565b60405180910390fd5b505050565b6000808273ffffffffffffffffffffffffffffffffffffffff163b119050919050565b600073ffffffffffffffffffffffffffffffffffffffff168273ffffffffffffffffffffffffffffffffffffffff1603612115576040517f08c379a000000000000000000000000000000000000000000000000000000000815260040161210c906138c7565b60405180910390fd5b61211e81611ccb565b1561215e576040517f08c379a000000000000000000000000000000000000000000000000000000000815260040161215590613933565b60405180910390fd5b61216a60008383611d37565b6001600360008473ffffffffffffffffffffffffffffffffffffffff1673ffffffffffffffffffffffffffffffffffffffff16815260200190815260200160002060008282546121ba919061342c565b92505081905550816002600083815260200190815260200160002060006101000a81548173ffffffffffffffffffffffffffffffffffffffff021916908373ffffffffffffffffffffffffffffffffffffffff160217905550808273ffffffffffffffffffffffffffffffffffffffff16600073ffffffffffffffffffffffffffffffffffffffff167fddf252ad1be2c89b69c2b068fc378daa952ba7f163c4a11628f55a4df523b3ef60405160405180910390a461227b60008383611d3c565b5050565b82805461228b90612ac5565b90600052602060002090601f0160209004810192826122ad57600085556122f4565b82601f106122c657805160ff19168380011785556122f4565b828001600101855582156122f4579182015b828111156122f35782518255916020019190600101906122d8565b5b5090506123019190612305565b5090565b5b8082111561231e576000816000905550600101612306565b5090565b6000604051905090565b600080fd5b600080fd5b60007fffffffff0000000000000000000000000000000000000000000000000000000082169050919050565b61236b81612336565b811461237657600080fd5b50565b60008135905061238881612362565b92915050565b6000602082840312156123a4576123a361232c565b5b60006123b284828501612379565b91505092915050565b60008115159050919050565b6123d0816123bb565b82525050565b60006020820190506123eb60008301846123c7565b92915050565b600081519050919050565b600082825260208201905092915050565b60005b8381101561242b578082015181840152602081019050612410565b8381111561243a576000848401525b50505050565b6000601f19601f8301169050919050565b600061245c826123f1565b61246681856123fc565b935061247681856020860161240d565b61247f81612440565b840191505092915050565b600060208201905081810360008301526124a48184612451565b905092915050565b6000819050919050565b6124bf816124ac565b81146124ca57600080fd5b50565b6000813590506124dc816124b6565b92915050565b6000602082840312156124f8576124f761232c565b5b6000612506848285016124cd565b91505092915050565b600073ffffffffffffffffffffffffffffffffffffffff82169050919050565b600061253a8261250f565b9050919050565b61254a8161252f565b82525050565b60006020820190506125656000830184612541565b92915050565b6125748161252f565b811461257f57600080fd5b50565b6000813590506125918161256b565b92915050565b600080604083850312156125ae576125ad61232c565b5b60006125bc85828601612582565b92505060206125cd858286016124cd565b9150509250929050565b6125e0816124ac565b82525050565b60006020820190506125fb60008301846125d7565b92915050565b60008060006060848603121561261a5761261961232c565b5b600061262886828701612582565b935050602061263986828701612582565b925050604061264a868287016124cd565b9150509250925092565b61265d816123bb565b811461266857600080fd5b50565b60008135905061267a81612654565b92915050565b6000602082840312156126965761269561232c565b5b60006126a48482850161266b565b91505092915050565b6000602082840312156126c3576126c261232c565b5b60006126d184828501612582565b91505092915050565b60006126e58261250f565b9050919050565b6126f5816126da565b82525050565b600060208201905061271060008301846126ec565b92915050565b6000806040838503121561272d5761272c61232c565b5b600061273b85828601612582565b925050602061274c8582860161266b565b9150509250929050565b600080fd5b600080fd5b7f4e487b7100000000000000000000000000000000000000000000000000000000600052604160045260246000fd5b61279882612440565b810181811067ffffffffffffffff821117156127b7576127b6612760565b5b80604052505050565b60006127ca612322565b90506127d6828261278f565b919050565b600067ffffffffffffffff8211156127f6576127f5612760565b5b6127ff82612440565b9050602081019050919050565b82818337600083830152505050565b600061282e612829846127db565b6127c0565b90508281526020810184848401111561284a5761284961275b565b5b61285584828561280c565b509392505050565b600082601f83011261287257612871612756565b5b813561288284826020860161281b565b91505092915050565b600080600080608085870312156128a5576128a461232c565b5b60006128b387828801612582565b94505060206128c487828801612582565b93505060406128d5878288016124cd565b925050606085013567ffffffffffffffff8111156128f6576128f5612331565b5b6129028782880161285d565b91505092959194509250565b600067ffffffffffffffff82111561292957612928612760565b5b61293282612440565b9050602081019050919050565b600061295261294d8461290e565b6127c0565b90508281526020810184848401111561296e5761296d61275b565b5b61297984828561280c565b509392505050565b600082601f83011261299657612995612756565b5b81356129a684826020860161293f565b91505092915050565b6000806000606084860312156129c8576129c761232c565b5b600084013567ffffffffffffffff8111156129e6576129e5612331565b5b6129f286828701612981565b935050602084013567ffffffffffffffff811115612a1357612a12612331565b5b612a1f86828701612981565b925050604084013567ffffffffffffffff811115612a4057612a3f612331565b5b612a4c86828701612981565b9150509250925092565b60008060408385031215612a6d57612a6c61232c565b5b6000612a7b85828601612582565b9250506020612a8c85828601612582565b9150509250929050565b7f4e487b7100000000000000000000000000000000000000000000000000000000600052602260045260246000fd5b60006002820490506001821680612add57607f821691505b602082108103612af057612aef612a96565b5b50919050565b7f4552433732313a20617070726f76616c20746f2063757272656e74206f776e6560008201527f7200000000000000000000000000000000000000000000000000000000000000602082015250565b6000612b526021836123fc565b9150612b5d82612af6565b604082019050919050565b60006020820190508181036000830152612b8181612b45565b9050919050565b7f4552433732313a20617070726f76652063616c6c6572206973206e6f7420746f60008201527f6b656e206f776e6572206e6f7220617070726f76656420666f7220616c6c0000602082015250565b6000612be4603e836123fc565b9150612bef82612b88565b604082019050919050565b60006020820190508181036000830152612c1381612bd7565b9050919050565b7f4552433732313a2063616c6c6572206973206e6f7420746f6b656e206f776e6560008201527f72206e6f7220617070726f766564000000000000000000000000000000000000602082015250565b6000612c76602e836123fc565b9150612c8182612c1a565b604082019050919050565b60006020820190508181036000830152612ca581612c69565b9050919050565b600081905092915050565b50565b6000612cc7600083612cac565b9150612cd282612cb7565b600082019050919050565b6000612ce882612cba565b9150819050919050565b7f4552433732313a20696e76616c696420746f6b656e2049440000000000000000600082015250565b6000612d286018836123fc565b9150612d3382612cf2565b602082019050919050565b60006020820190508181036000830152612d5781612d1b565b9050919050565b7f4552433732313a2061646472657373207a65726f206973206e6f74206120766160008201527f6c6964206f776e65720000000000000000000000000000000000000000000000602082015250565b6000612dba6029836123fc565b9150612dc582612d5e565b604082019050919050565b60006020820190508181036000830152612de981612dad565b9050919050565b600081905092915050565b6000612e06826123f1565b612e108185612df0565b9350612e2081856020860161240d565b80840191505092915050565b6000612e388285612dfb565b9150612e448284612dfb565b91508190509392505050565b7f6f776e65722064697361626c6564206d696e74696e6721000000000000000000600082015250565b6000612e866017836123fc565b9150612e9182612e50565b602082019050919050565b60006020820190508181036000830152612eb581612e79565b9050919050565b7f65786365656473206d6178207065722077616c6c657400000000000000000000600082015250565b6000612ef26016836123fc565b9150612efd82612ebc565b602082019050919050565b60006020820190508181036000830152612f2181612ee5565b9050919050565b7f77726f6e672076616c756520666f72206d696e74696e67207072696365000000600082015250565b6000612f5e601d836123fc565b9150612f6982612f28565b602082019050919050565b60006020820190508181036000830152612f8d81612f51565b9050919050565b7f636f6c6c656374696f6e20736f6c64206f757400000000000000000000000000600082015250565b6000612fca6013836123fc565b9150612fd582612f94565b602082019050919050565b60006020820190508181036000830152612ff981612fbd565b9050919050565b7f4e487b7100000000000000000000000000000000000000000000000000000000600052601160045260246000fd5b600061303a826124ac565b91507fffffffffffffffffffffffffffffffffffffffffffffffffffffffffffffffff820361306c5761306b613000565b5b600182019050919050565b7f4f776e61626c653a206e6577206f776e657220697320746865207a65726f206160008201527f6464726573730000000000000000000000000000000000000000000000000000602082015250565b60006130d36026836123fc565b91506130de82613077565b604082019050919050565b60006020820190508181036000830152613102816130c6565b9050919050565b7f7b226e616d65223a202200000000000000000000000000000000000000000000600082015250565b600061313f600a83612df0565b915061314a82613109565b600a82019050919050565b7f222c20226465736372697074696f6e223a202200000000000000000000000000600082015250565b600061318b601383612df0565b915061319682613155565b601382019050919050565b7f222c2022696d6167655f64617461223a22000000000000000000000000000000600082015250565b60006131d7601183612df0565b91506131e2826131a1565b601182019050919050565b60006131f882613132565b91506132048289612dfb565b915061320f8261317e565b915061321b8288612dfb565b9150613226826131ca565b91506132328287612dfb565b915061323e8286612dfb565b915061324a8285612dfb565b91506132568284612dfb565b9150819050979650505050505050565b7f646174613a6170706c69636174696f6e2f6a736f6e3b6261736536342c000000600082015250565b600061329c601d83612df0565b91506132a782613266565b601d82019050919050565b60006132bd8261328f565b91506132c98284612dfb565b915081905092915050565b7f4552433732313a207472616e736665722066726f6d20696e636f72726563742060008201527f6f776e6572000000000000000000000000000000000000000000000000000000602082015250565b60006133306025836123fc565b915061333b826132d4565b604082019050919050565b6000602082019050818103600083015261335f81613323565b9050919050565b7f4552433732313a207472616e7366657220746f20746865207a65726f2061646460008201527f7265737300000000000000000000000000000000000000000000000000000000602082015250565b60006133c26024836123fc565b91506133cd82613366565b604082019050919050565b600060208201905081810360008301526133f1816133b5565b9050919050565b6000613403826124ac565b915061340e836124ac565b92508282101561342157613420613000565b5b828203905092915050565b6000613437826124ac565b9150613442836124ac565b9250827fffffffffffffffffffffffffffffffffffffffffffffffffffffffffffffffff0382111561347757613476613000565b5b828201905092915050565b7f4f776e61626c653a2063616c6c6572206973206e6f7420746865206f776e6572600082015250565b60006134b86020836123fc565b91506134c382613482565b602082019050919050565b600060208201905081810360008301526134e7816134ab565b9050919050565b7f4552433732313a20617070726f766520746f2063616c6c657200000000000000600082015250565b60006135246019836123fc565b915061352f826134ee565b602082019050919050565b6000602082019050818103600083015261355381613517565b9050919050565b7f4552433732313a207472616e7366657220746f206e6f6e20455243373231526560008201527f63656976657220696d706c656d656e7465720000000000000000000000000000602082015250565b60006135b66032836123fc565b91506135c18261355a565b604082019050919050565b600060208201905081810360008301526135e5816135a9565b9050919050565b7f45524337323155524953746f726167653a2055524920736574206f66206e6f6e60008201527f6578697374656e7420746f6b656e000000000000000000000000000000000000602082015250565b6000613648602e836123fc565b9150613653826135ec565b604082019050919050565b600060208201905081810360008301526136778161363b565b9050919050565b7f4e487b7100000000000000000000000000000000000000000000000000000000600052601260045260246000fd5b60006136b8826124ac565b91506136c3836124ac565b9250826136d3576136d261367e565b5b828204905092915050565b60006136e9826124ac565b91506136f4836124ac565b9250817fffffffffffffffffffffffffffffffffffffffffffffffffffffffffffffffff048311821515161561372d5761372c613000565b5b828202905092915050565b600081519050919050565b600082825260208201905092915050565b600061375f82613738565b6137698185613743565b935061377981856020860161240d565b61378281612440565b840191505092915050565b60006080820190506137a26000830187612541565b6137af6020830186612541565b6137bc60408301856125d7565b81810360608301526137ce8184613754565b905095945050505050565b6000815190506137e881612362565b92915050565b6000602082840312156138045761380361232c565b5b6000613812848285016137d9565b91505092915050565b6000613826826124ac565b9150613831836124ac565b9250826138415761384061367e565b5b828206905092915050565b7f4e487b7100000000000000000000000000000000000000000000000000000000600052603260045260246000fd5b7f4552433732313a206d696e7420746f20746865207a65726f2061646472657373600082015250565b60006138b16020836123fc565b91506138bc8261387b565b602082019050919050565b600060208201905081810360008301526138e0816138a4565b9050919050565b7f4552433732313a20746f6b656e20616c7265616479206d696e74656400000000600082015250565b600061391d601c836123fc565b9150613928826138e7565b602082019050919050565b6000602082019050818103600083015261394c81613910565b905091905056fe4142434445464748494a4b4c4d4e4f505152535455565758595a6162636465666768696a6b6c6d6e6f707172737475767778797a303132333435363738392b2f3c7376672077696474683d2732303027206865696768743d273230302720786d6c6e733d27687474703a2f2f7777772e77332e6f72672f323030302f737667273e203c696d61676520687265663d27a2646970667358221220986aeef7c79aa6cab6b0d8e7b21f2d5a9da489aff968b9b9b91aaec707f90a4364736f6c634300080e0033",
  "immutableReferences": {},
  "source": "// SPDX-License-Identifier: MIT\npragma solidity >=0.4.22 <0.9.0;\n\n//import \"@openzeppelin/contracts/token/ERC721/extensions/ERC721URIStorage.sol\"\n\nimport \"../node_modules/@openzeppelin/contracts/token/ERC721/extensions/ERC721URIStorage.sol\";\nimport \"../node_modules/@openzeppelin/contracts/access/Ownable.sol\";\nimport \"../node_modules/@openzeppelin/contracts/utils/Counters.sol\";\n\nlibrary Base64 {\n    string internal constant TABLE_ENCODE = 'ABCDEFGHIJKLMNOPQRSTUVWXYZabcdefghijklmnopqrstuvwxyz0123456789+/';\n    bytes  internal constant TABLE_DECODE = hex\"0000000000000000000000000000000000000000000000000000000000000000\"\n                                            hex\"00000000000000000000003e0000003f3435363738393a3b3c3d000000000000\"\n                                            hex\"00000102030405060708090a0b0c0d0e0f101112131415161718190000000000\"\n                                            hex\"001a1b1c1d1e1f202122232425262728292a2b2c2d2e2f303132330000000000\";\n\n    function encode(bytes memory data) internal pure returns (string memory) {\n        if (data.length == 0) return '';\n\n        // load the table into memory\n        string memory table = TABLE_ENCODE;\n\n        // multiply by 4/3 rounded up\n        uint256 encodedLen = 4 * ((data.length + 2) / 3);\n\n        // add some extra buffer at the end required for the writing\n        string memory result = new string(encodedLen + 32);\n\n        assembly {\n            // set the actual output length\n            mstore(result, encodedLen)\n\n            // prepare the lookup table\n            let tablePtr := add(table, 1)\n\n            // input ptr\n            let dataPtr := data\n            let endPtr := add(dataPtr, mload(data))\n\n            // result ptr, jump over length\n            let resultPtr := add(result, 32)\n\n            // run over the input, 3 bytes at a time\n            for {} lt(dataPtr, endPtr) {}\n            {\n                // read 3 bytes\n                dataPtr := add(dataPtr, 3)\n                let input := mload(dataPtr)\n\n                // write 4 characters\n                mstore8(resultPtr, mload(add(tablePtr, and(shr(18, input), 0x3F))))\n                resultPtr := add(resultPtr, 1)\n                mstore8(resultPtr, mload(add(tablePtr, and(shr(12, input), 0x3F))))\n                resultPtr := add(resultPtr, 1)\n                mstore8(resultPtr, mload(add(tablePtr, and(shr( 6, input), 0x3F))))\n                resultPtr := add(resultPtr, 1)\n                mstore8(resultPtr, mload(add(tablePtr, and(        input,  0x3F))))\n                resultPtr := add(resultPtr, 1)\n            }\n\n            // padding with '='\n            switch mod(mload(data), 3)\n            case 1 { mstore(sub(resultPtr, 2), shl(240, 0x3d3d)) }\n            case 2 { mstore(sub(resultPtr, 1), shl(248, 0x3d)) }\n        }\n\n        return result;\n    }\n\n    function decode(string memory _data) internal pure returns (bytes memory) {\n        bytes memory data = bytes(_data);\n\n        if (data.length == 0) return new bytes(0);\n        require(data.length % 4 == 0, \"invalid base64 decoder input\");\n\n        // load the table into memory\n        bytes memory table = TABLE_DECODE;\n\n        // every 4 characters represent 3 bytes\n        uint256 decodedLen = (data.length / 4) * 3;\n\n        // add some extra buffer at the end required for the writing\n        bytes memory result = new bytes(decodedLen + 32);\n\n        assembly {\n            // padding with '='\n            let lastBytes := mload(add(data, mload(data)))\n            if eq(and(lastBytes, 0xFF), 0x3d) {\n                decodedLen := sub(decodedLen, 1)\n                if eq(and(lastBytes, 0xFFFF), 0x3d3d) {\n                    decodedLen := sub(decodedLen, 1)\n                }\n            }\n\n            // set the actual output length\n            mstore(result, decodedLen)\n\n            // prepare the lookup table\n            let tablePtr := add(table, 1)\n\n            // input ptr\n            let dataPtr := data\n            let endPtr := add(dataPtr, mload(data))\n\n            // result ptr, jump over length\n            let resultPtr := add(result, 32)\n\n            // run over the input, 4 characters at a time\n            for {} lt(dataPtr, endPtr) {}\n            {\n               // read 4 characters\n               dataPtr := add(dataPtr, 4)\n               let input := mload(dataPtr)\n\n               // write 3 bytes\n               let output := add(\n                   add(\n                       shl(18, and(mload(add(tablePtr, and(shr(24, input), 0xFF))), 0xFF)),\n                       shl(12, and(mload(add(tablePtr, and(shr(16, input), 0xFF))), 0xFF))),\n                   add(\n                       shl( 6, and(mload(add(tablePtr, and(shr( 8, input), 0xFF))), 0xFF)),\n                               and(mload(add(tablePtr, and(        input , 0xFF))), 0xFF)\n                    )\n                )\n                mstore(resultPtr, shl(232, output))\n                resultPtr := add(resultPtr, 3)\n            }\n        }\n\n        return result;\n    }\n}\n\ncontract OnChainNFT is ERC721URIStorage, Ownable {\n\n    uint256 public mintPrice;\n    uint256 public totalSupply;\n    uint256 public maxSupply;\n    bool public isMintEnabled=true;\n\n    address payable public withdrawWallet;\n    mapping(address => uint256) public mintedWallets;\n\n    constructor() payable ERC721(\"OnChainPixelart\", \"ONP\") {\n        mintPrice = 0.001 ether;\n        totalSupply = 0;\n        maxSupply = 999;\n    }\n\n    function toggleIsMintEnabled(bool isMintEnabled_) external onlyOwner {\n        isMintEnabled = isMintEnabled_;\n    }\n\n    function setMaxSupply(uint256 maxSupply_) external onlyOwner {\n        maxSupply = maxSupply_;\n    }\n\n        function getSvg1() private pure returns (string memory) {\n        string memory svg1;\n        svg1 = \"<svg width='200' height='200' xmlns='http://www.w3.org/2000/svg'> <image href='\";\n        return svg1;\n    }    \n\n        function getSvg2() private pure returns (string memory) {\n        string memory svg2;\n        svg2 = \"'></image> </svg>\";\n        return svg2;\n    } \n\n    function addCurlyBrace() private pure returns (string memory){\n        string memory curlyBrace;\n        curlyBrace = '\"}';\n        return curlyBrace;\n    }\n\n\n    /* Generates a tokenURI using Base64 string as the image */\n    function formatTokenURI(string memory name, string memory description,string memory imageURI)\n        public\n        pure\n        returns (string memory)\n    {\n        \n        return\n            string(\n                abi.encodePacked(\"data:application/json;base64,\",\n                            Base64.encode(\n                      bytes(string(\n                        abi.encodePacked(\n                            '{\"name\": \"',\n                            name,\n                            '\", \"description\": \"',\n                            description,\n                            '\", \"image_data\":\"',\n                            getSvg1(),\n                            imageURI,\n                            getSvg2(),\n                            addCurlyBrace()\n                          \n                        ))\n                    )\n                       )\n                )\n            );\n    }\n        function mint(string memory name, string memory description,string memory imageURI) external payable {\n\n            require(isMintEnabled, \"owner disabled minting!\");\n            require(mintedWallets[msg.sender]<10, 'exceeds max per wallet');\n            require(msg.value == mintPrice,'wrong value for minting price');\n            require(maxSupply> totalSupply,'collection sold out');\n\n            mintedWallets[msg.sender]++;\n            totalSupply++;\n\n            string memory tokenURI = formatTokenURI(name, description, imageURI); \n            uint256 tokenId=totalSupply;\n            \n            _safeMint(msg.sender, tokenId);\n            _setTokenURI(tokenId, tokenURI);\n        }\n\n  function withdraw() public payable onlyOwner {\n    (bool os, ) = payable(owner()).call{value: address(this).balance}(\"\");\n    require(os);\n  }\n\n   \n}\n",
  "sourcePath": "/home/brate/Desktop/web3_pixelart_full/react_web3_pixelart_creator/truffle/contracts/OnChainNFT.sol",
  "compiler": {
    "name": "solc",
    "version": "0.8.14+commit.80d49f37.Emscripten.clang"
  },
  "schemaVersion": "3.4.8",
  "updatedAt": "2022-09-23T22:09:13.049Z",
  "devdoc": {
    "kind": "dev",
    "methods": {
      "approve(address,uint256)": {
        "details": "See {IERC721-approve}."
      },
      "balanceOf(address)": {
        "details": "See {IERC721-balanceOf}."
      },
      "getApproved(uint256)": {
        "details": "See {IERC721-getApproved}."
      },
      "isApprovedForAll(address,address)": {
        "details": "See {IERC721-isApprovedForAll}."
      },
      "name()": {
        "details": "See {IERC721Metadata-name}."
      },
      "owner()": {
        "details": "Returns the address of the current owner."
      },
      "ownerOf(uint256)": {
        "details": "See {IERC721-ownerOf}."
      },
      "renounceOwnership()": {
        "details": "Leaves the contract without owner. It will not be possible to call `onlyOwner` functions anymore. Can only be called by the current owner. NOTE: Renouncing ownership will leave the contract without an owner, thereby removing any functionality that is only available to the owner."
      },
      "safeTransferFrom(address,address,uint256)": {
        "details": "See {IERC721-safeTransferFrom}."
      },
      "safeTransferFrom(address,address,uint256,bytes)": {
        "details": "See {IERC721-safeTransferFrom}."
      },
      "setApprovalForAll(address,bool)": {
        "details": "See {IERC721-setApprovalForAll}."
      },
      "supportsInterface(bytes4)": {
        "details": "See {IERC165-supportsInterface}."
      },
      "symbol()": {
        "details": "See {IERC721Metadata-symbol}."
      },
      "tokenURI(uint256)": {
        "details": "See {IERC721Metadata-tokenURI}."
      },
      "transferFrom(address,address,uint256)": {
        "details": "See {IERC721-transferFrom}."
      },
      "transferOwnership(address)": {
        "details": "Transfers ownership of the contract to a new account (`newOwner`). Can only be called by the current owner."
      }
    },
    "version": 1
  },
  "userdoc": {
    "kind": "user",
    "methods": {},
    "version": 1
  }
}