{
  "contractName": "OnChainNFT",
  "abi": [
    {
      "inputs": [],
      "stateMutability": "nonpayable",
      "type": "constructor"
    },
    {
      "anonymous": false,
      "inputs": [
        {
          "indexed": true,
          "internalType": "address",
          "name": "owner",
          "type": "address"
        },
        {
          "indexed": true,
          "internalType": "address",
          "name": "approved",
          "type": "address"
        },
        {
          "indexed": true,
          "internalType": "uint256",
          "name": "tokenId",
          "type": "uint256"
        }
      ],
      "name": "Approval",
      "type": "event"
    },
    {
      "anonymous": false,
      "inputs": [
        {
          "indexed": true,
          "internalType": "address",
          "name": "owner",
          "type": "address"
        },
        {
          "indexed": true,
          "internalType": "address",
          "name": "operator",
          "type": "address"
        },
        {
          "indexed": false,
          "internalType": "bool",
          "name": "approved",
          "type": "bool"
        }
      ],
      "name": "ApprovalForAll",
      "type": "event"
    },
    {
      "anonymous": false,
      "inputs": [
        {
          "indexed": false,
          "internalType": "uint256",
          "name": "tokenId",
          "type": "uint256"
        }
      ],
      "name": "Minted",
      "type": "event"
    },
    {
      "anonymous": false,
      "inputs": [
        {
          "indexed": true,
          "internalType": "address",
          "name": "previousOwner",
          "type": "address"
        },
        {
          "indexed": true,
          "internalType": "address",
          "name": "newOwner",
          "type": "address"
        }
      ],
      "name": "OwnershipTransferred",
      "type": "event"
    },
    {
      "anonymous": false,
      "inputs": [
        {
          "indexed": true,
          "internalType": "address",
          "name": "from",
          "type": "address"
        },
        {
          "indexed": true,
          "internalType": "address",
          "name": "to",
          "type": "address"
        },
        {
          "indexed": true,
          "internalType": "uint256",
          "name": "tokenId",
          "type": "uint256"
        }
      ],
      "name": "Transfer",
      "type": "event"
    },
    {
      "inputs": [
        {
          "internalType": "address",
          "name": "to",
          "type": "address"
        },
        {
          "internalType": "uint256",
          "name": "tokenId",
          "type": "uint256"
        }
      ],
      "name": "approve",
      "outputs": [],
      "stateMutability": "nonpayable",
      "type": "function"
    },
    {
      "inputs": [
        {
          "internalType": "address",
          "name": "owner",
          "type": "address"
        }
      ],
      "name": "balanceOf",
      "outputs": [
        {
          "internalType": "uint256",
          "name": "",
          "type": "uint256"
        }
      ],
      "stateMutability": "view",
      "type": "function",
      "constant": true
    },
    {
      "inputs": [
        {
          "internalType": "uint256",
          "name": "tokenId",
          "type": "uint256"
        }
      ],
      "name": "getApproved",
      "outputs": [
        {
          "internalType": "address",
          "name": "",
          "type": "address"
        }
      ],
      "stateMutability": "view",
      "type": "function",
      "constant": true
    },
    {
      "inputs": [
        {
          "internalType": "address",
          "name": "owner",
          "type": "address"
        },
        {
          "internalType": "address",
          "name": "operator",
          "type": "address"
        }
      ],
      "name": "isApprovedForAll",
      "outputs": [
        {
          "internalType": "bool",
          "name": "",
          "type": "bool"
        }
      ],
      "stateMutability": "view",
      "type": "function",
      "constant": true
    },
    {
      "inputs": [],
      "name": "name",
      "outputs": [
        {
          "internalType": "string",
          "name": "",
          "type": "string"
        }
      ],
      "stateMutability": "view",
      "type": "function",
      "constant": true
    },
    {
      "inputs": [],
      "name": "owner",
      "outputs": [
        {
          "internalType": "address",
          "name": "",
          "type": "address"
        }
      ],
      "stateMutability": "view",
      "type": "function",
      "constant": true
    },
    {
      "inputs": [
        {
          "internalType": "uint256",
          "name": "tokenId",
          "type": "uint256"
        }
      ],
      "name": "ownerOf",
      "outputs": [
        {
          "internalType": "address",
          "name": "",
          "type": "address"
        }
      ],
      "stateMutability": "view",
      "type": "function",
      "constant": true
    },
    {
      "inputs": [],
      "name": "renounceOwnership",
      "outputs": [],
      "stateMutability": "nonpayable",
      "type": "function"
    },
    {
      "inputs": [
        {
          "internalType": "address",
          "name": "from",
          "type": "address"
        },
        {
          "internalType": "address",
          "name": "to",
          "type": "address"
        },
        {
          "internalType": "uint256",
          "name": "tokenId",
          "type": "uint256"
        }
      ],
      "name": "safeTransferFrom",
      "outputs": [],
      "stateMutability": "nonpayable",
      "type": "function"
    },
    {
      "inputs": [
        {
          "internalType": "address",
          "name": "from",
          "type": "address"
        },
        {
          "internalType": "address",
          "name": "to",
          "type": "address"
        },
        {
          "internalType": "uint256",
          "name": "tokenId",
          "type": "uint256"
        },
        {
          "internalType": "bytes",
          "name": "data",
          "type": "bytes"
        }
      ],
      "name": "safeTransferFrom",
      "outputs": [],
      "stateMutability": "nonpayable",
      "type": "function"
    },
    {
      "inputs": [
        {
          "internalType": "address",
          "name": "operator",
          "type": "address"
        },
        {
          "internalType": "bool",
          "name": "approved",
          "type": "bool"
        }
      ],
      "name": "setApprovalForAll",
      "outputs": [],
      "stateMutability": "nonpayable",
      "type": "function"
    },
    {
      "inputs": [
        {
          "internalType": "bytes4",
          "name": "interfaceId",
          "type": "bytes4"
        }
      ],
      "name": "supportsInterface",
      "outputs": [
        {
          "internalType": "bool",
          "name": "",
          "type": "bool"
        }
      ],
      "stateMutability": "view",
      "type": "function",
      "constant": true
    },
    {
      "inputs": [],
      "name": "symbol",
      "outputs": [
        {
          "internalType": "string",
          "name": "",
          "type": "string"
        }
      ],
      "stateMutability": "view",
      "type": "function",
      "constant": true
    },
    {
      "inputs": [
        {
          "internalType": "uint256",
          "name": "tokenId",
          "type": "uint256"
        }
      ],
      "name": "tokenURI",
      "outputs": [
        {
          "internalType": "string",
          "name": "",
          "type": "string"
        }
      ],
      "stateMutability": "view",
      "type": "function",
      "constant": true
    },
    {
      "inputs": [
        {
          "internalType": "address",
          "name": "from",
          "type": "address"
        },
        {
          "internalType": "address",
          "name": "to",
          "type": "address"
        },
        {
          "internalType": "uint256",
          "name": "tokenId",
          "type": "uint256"
        }
      ],
      "name": "transferFrom",
      "outputs": [],
      "stateMutability": "nonpayable",
      "type": "function"
    },
    {
      "inputs": [
        {
          "internalType": "address",
          "name": "newOwner",
          "type": "address"
        }
      ],
      "name": "transferOwnership",
      "outputs": [],
      "stateMutability": "nonpayable",
      "type": "function"
    },
    {
      "inputs": [
        {
          "internalType": "string",
          "name": "imageURI",
          "type": "string"
        }
      ],
      "name": "formatTokenURI",
      "outputs": [
        {
          "internalType": "string",
          "name": "",
          "type": "string"
        }
      ],
      "stateMutability": "pure",
      "type": "function",
      "constant": true
    },
    {
      "inputs": [
        {
          "internalType": "string",
          "name": "imageURI",
          "type": "string"
        }
      ],
      "name": "mint",
      "outputs": [],
      "stateMutability": "nonpayable",
      "type": "function"
    }
  ],
  "bytecode": "0x60806040523480156200001157600080fd5b506040518060400160405280600a81526020017f4f6e436861696e4e4654000000000000000000000000000000000000000000008152506040518060400160405280600381526020017f4f4e430000000000000000000000000000000000000000000000000000000000815250816000908051906020019062000096929190620001a6565b508060019080519060200190620000af929190620001a6565b505050620000d2620000c6620000d860201b60201c565b620000e060201b60201c565b620002ba565b600033905090565b6000600760009054906101000a900473ffffffffffffffffffffffffffffffffffffffff16905081600760006101000a81548173ffffffffffffffffffffffffffffffffffffffff021916908373ffffffffffffffffffffffffffffffffffffffff1602179055508173ffffffffffffffffffffffffffffffffffffffff168173ffffffffffffffffffffffffffffffffffffffff167f8be0079c531659141344cd1fd0a4f28419497f9722a3daafe3b4186f6b6457e060405160405180910390a35050565b828054620001b49062000285565b90600052602060002090601f016020900481019282620001d8576000855562000224565b82601f10620001f357805160ff191683800117855562000224565b8280016001018555821562000224579182015b828111156200022357825182559160200191906001019062000206565b5b50905062000233919062000237565b5090565b5b808211156200025257600081600090555060010162000238565b5090565b7f4e487b7100000000000000000000000000000000000000000000000000000000600052602260045260246000fd5b600060028204905060018216806200029e57607f821691505b602082108103620002b457620002b362000256565b5b50919050565b612ecb80620002ca6000396000f3fe608060405234801561001057600080fd5b50600436106101165760003560e01c806371aee193116100a2578063b88d4fde11610071578063b88d4fde146102df578063c87b56dd146102fb578063d85d3d271461032b578063e985e9c514610347578063f2fde38b1461037757610116565b806371aee193146102575780638da5cb5b1461028757806395d89b41146102a5578063a22cb465146102c357610116565b806323b872dd116100e957806323b872dd146101b557806342842e0e146101d15780636352211e146101ed57806370a082311461021d578063715018a61461024d57610116565b806301ffc9a71461011b57806306fdde031461014b578063081812fc14610169578063095ea7b314610199575b600080fd5b61013560048036038101906101309190611bf7565b610393565b6040516101429190611c3f565b60405180910390f35b610153610475565b6040516101609190611cf3565b60405180910390f35b610183600480360381019061017e9190611d4b565b610507565b6040516101909190611db9565b60405180910390f35b6101b360048036038101906101ae9190611e00565b61054d565b005b6101cf60048036038101906101ca9190611e40565b610664565b005b6101eb60048036038101906101e69190611e40565b6106c4565b005b61020760048036038101906102029190611d4b565b6106e4565b6040516102149190611db9565b60405180910390f35b61023760048036038101906102329190611e93565b610795565b6040516102449190611ecf565b60405180910390f35b61025561084c565b005b610271600480360381019061026c919061201f565b610860565b60405161027e9190611cf3565b60405180910390f35b61028f6108a8565b60405161029c9190611db9565b60405180910390f35b6102ad6108d2565b6040516102ba9190611cf3565b60405180910390f35b6102dd60048036038101906102d89190612094565b610964565b005b6102f960048036038101906102f49190612175565b61097a565b005b61031560048036038101906103109190611d4b565b6109dc565b6040516103229190611cf3565b60405180910390f35b6103456004803603810190610340919061201f565b610aee565b005b610361600480360381019061035c91906121f8565b610b6b565b60405161036e9190611c3f565b60405180910390f35b610391600480360381019061038c9190611e93565b610bff565b005b60007f80ac58cd000000000000000000000000000000000000000000000000000000007bffffffffffffffffffffffffffffffffffffffffffffffffffffffff1916827bffffffffffffffffffffffffffffffffffffffffffffffffffffffff1916148061045e57507f5b5e139f000000000000000000000000000000000000000000000000000000007bffffffffffffffffffffffffffffffffffffffffffffffffffffffff1916827bffffffffffffffffffffffffffffffffffffffffffffffffffffffff1916145b8061046e575061046d82610c82565b5b9050919050565b60606000805461048490612267565b80601f01602080910402602001604051908101604052809291908181526020018280546104b090612267565b80156104fd5780601f106104d2576101008083540402835291602001916104fd565b820191906000526020600020905b8154815290600101906020018083116104e057829003601f168201915b5050505050905090565b600061051282610cec565b6004600083815260200190815260200160002060009054906101000a900473ffffffffffffffffffffffffffffffffffffffff169050919050565b6000610558826106e4565b90508073ffffffffffffffffffffffffffffffffffffffff168373ffffffffffffffffffffffffffffffffffffffff16036105c8576040517f08c379a00000000000000000000000000000000000000000000000000000000081526004016105bf9061230a565b60405180910390fd5b8073ffffffffffffffffffffffffffffffffffffffff166105e7610d37565b73ffffffffffffffffffffffffffffffffffffffff161480610616575061061581610610610d37565b610b6b565b5b610655576040517f08c379a000000000000000000000000000000000000000000000000000000000815260040161064c9061239c565b60405180910390fd5b61065f8383610d3f565b505050565b61067561066f610d37565b82610df8565b6106b4576040517f08c379a00000000000000000000000000000000000000000000000000000000081526004016106ab9061242e565b60405180910390fd5b6106bf838383610e8d565b505050565b6106df8383836040518060200160405280600081525061097a565b505050565b6000806002600084815260200190815260200160002060009054906101000a900473ffffffffffffffffffffffffffffffffffffffff169050600073ffffffffffffffffffffffffffffffffffffffff168173ffffffffffffffffffffffffffffffffffffffff160361078c576040517f08c379a00000000000000000000000000000000000000000000000000000000081526004016107839061249a565b60405180910390fd5b80915050919050565b60008073ffffffffffffffffffffffffffffffffffffffff168273ffffffffffffffffffffffffffffffffffffffff1603610805576040517f08c379a00000000000000000000000000000000000000000000000000000000081526004016107fc9061252c565b60405180910390fd5b600360008373ffffffffffffffffffffffffffffffffffffffff1673ffffffffffffffffffffffffffffffffffffffff168152602001908152602001600020549050919050565b6108546110f3565b61085e6000611171565b565b606081604051602001610873919061266c565b604051602081830303815290604052604051602001610892919061272c565b6040516020818303038152906040529050919050565b6000600760009054906101000a900473ffffffffffffffffffffffffffffffffffffffff16905090565b6060600180546108e190612267565b80601f016020809104026020016040519081016040528092919081815260200182805461090d90612267565b801561095a5780601f1061092f5761010080835404028352916020019161095a565b820191906000526020600020905b81548152906001019060200180831161093d57829003601f168201915b5050505050905090565b61097661096f610d37565b8383611237565b5050565b61098b610985610d37565b83610df8565b6109ca576040517f08c379a00000000000000000000000000000000000000000000000000000000081526004016109c19061242e565b60405180910390fd5b6109d6848484846113a3565b50505050565b60606109e782610cec565b6000600660008481526020019081526020016000208054610a0790612267565b80601f0160208091040260200160405190810160405280929190818152602001828054610a3390612267565b8015610a805780601f10610a5557610100808354040283529160200191610a80565b820191906000526020600020905b815481529060010190602001808311610a6357829003601f168201915b505050505090506000610a916113ff565b90506000815103610aa6578192505050610ae9565b600082511115610adb578082604051602001610ac392919061274e565b60405160208183030381529060405292505050610ae9565b610ae484611416565b925050505b919050565b610af66110f3565b6000610b0182610860565b9050610b0d600861147e565b6000610b196008611494565b9050610b2533826114a2565b610b2f81836114c0565b7f176b02bb2d12439ff7a20b59f402cca16c76f50508b13ef3166a600eb719354a81604051610b5e9190611ecf565b60405180910390a1505050565b6000600560008473ffffffffffffffffffffffffffffffffffffffff1673ffffffffffffffffffffffffffffffffffffffff16815260200190815260200160002060008373ffffffffffffffffffffffffffffffffffffffff1673ffffffffffffffffffffffffffffffffffffffff16815260200190815260200160002060009054906101000a900460ff16905092915050565b610c076110f3565b600073ffffffffffffffffffffffffffffffffffffffff168173ffffffffffffffffffffffffffffffffffffffff1603610c76576040517f08c379a0000000000000000000000000000000000000000000000000000000008152600401610c6d906127e4565b60405180910390fd5b610c7f81611171565b50565b60007f01ffc9a7000000000000000000000000000000000000000000000000000000007bffffffffffffffffffffffffffffffffffffffffffffffffffffffff1916827bffffffffffffffffffffffffffffffffffffffffffffffffffffffff1916149050919050565b610cf581611534565b610d34576040517f08c379a0000000000000000000000000000000000000000000000000000000008152600401610d2b9061249a565b60405180910390fd5b50565b600033905090565b816004600083815260200190815260200160002060006101000a81548173ffffffffffffffffffffffffffffffffffffffff021916908373ffffffffffffffffffffffffffffffffffffffff160217905550808273ffffffffffffffffffffffffffffffffffffffff16610db2836106e4565b73ffffffffffffffffffffffffffffffffffffffff167f8c5be1e5ebec7d5bd14f71427d1e84f3dd0314c0f7b2291e5b200ac8c7c3b92560405160405180910390a45050565b600080610e04836106e4565b90508073ffffffffffffffffffffffffffffffffffffffff168473ffffffffffffffffffffffffffffffffffffffff161480610e465750610e458185610b6b565b5b80610e8457508373ffffffffffffffffffffffffffffffffffffffff16610e6c84610507565b73ffffffffffffffffffffffffffffffffffffffff16145b91505092915050565b8273ffffffffffffffffffffffffffffffffffffffff16610ead826106e4565b73ffffffffffffffffffffffffffffffffffffffff1614610f03576040517f08c379a0000000000000000000000000000000000000000000000000000000008152600401610efa90612876565b60405180910390fd5b600073ffffffffffffffffffffffffffffffffffffffff168273ffffffffffffffffffffffffffffffffffffffff1603610f72576040517f08c379a0000000000000000000000000000000000000000000000000000000008152600401610f6990612908565b60405180910390fd5b610f7d8383836115a0565b610f88600082610d3f565b6001600360008573ffffffffffffffffffffffffffffffffffffffff1673ffffffffffffffffffffffffffffffffffffffff1681526020019081526020016000206000828254610fd89190612957565b925050819055506001600360008473ffffffffffffffffffffffffffffffffffffffff1673ffffffffffffffffffffffffffffffffffffffff168152602001908152602001600020600082825461102f919061298b565b92505081905550816002600083815260200190815260200160002060006101000a81548173ffffffffffffffffffffffffffffffffffffffff021916908373ffffffffffffffffffffffffffffffffffffffff160217905550808273ffffffffffffffffffffffffffffffffffffffff168473ffffffffffffffffffffffffffffffffffffffff167fddf252ad1be2c89b69c2b068fc378daa952ba7f163c4a11628f55a4df523b3ef60405160405180910390a46110ee8383836115a5565b505050565b6110fb610d37565b73ffffffffffffffffffffffffffffffffffffffff166111196108a8565b73ffffffffffffffffffffffffffffffffffffffff161461116f576040517f08c379a000000000000000000000000000000000000000000000000000000000815260040161116690612a2d565b60405180910390fd5b565b6000600760009054906101000a900473ffffffffffffffffffffffffffffffffffffffff16905081600760006101000a81548173ffffffffffffffffffffffffffffffffffffffff021916908373ffffffffffffffffffffffffffffffffffffffff1602179055508173ffffffffffffffffffffffffffffffffffffffff168173ffffffffffffffffffffffffffffffffffffffff167f8be0079c531659141344cd1fd0a4f28419497f9722a3daafe3b4186f6b6457e060405160405180910390a35050565b8173ffffffffffffffffffffffffffffffffffffffff168373ffffffffffffffffffffffffffffffffffffffff16036112a5576040517f08c379a000000000000000000000000000000000000000000000000000000000815260040161129c90612a99565b60405180910390fd5b80600560008573ffffffffffffffffffffffffffffffffffffffff1673ffffffffffffffffffffffffffffffffffffffff16815260200190815260200160002060008473ffffffffffffffffffffffffffffffffffffffff1673ffffffffffffffffffffffffffffffffffffffff16815260200190815260200160002060006101000a81548160ff0219169083151502179055508173ffffffffffffffffffffffffffffffffffffffff168373ffffffffffffffffffffffffffffffffffffffff167f17307eab39ab6107e8899845ad3d59bd9653f200f220920489ca2b5937696c31836040516113969190611c3f565b60405180910390a3505050565b6113ae848484610e8d565b6113ba848484846115aa565b6113f9576040517f08c379a00000000000000000000000000000000000000000000000000000000081526004016113f090612b2b565b60405180910390fd5b50505050565b606060405180602001604052806000815250905090565b606061142182610cec565b600061142b6113ff565b9050600081511161144b5760405180602001604052806000815250611476565b8061145584611731565b60405160200161146692919061274e565b6040516020818303038152906040525b915050919050565b6001816000016000828254019250508190555050565b600081600001549050919050565b6114bc828260405180602001604052806000815250611891565b5050565b6114c982611534565b611508576040517f08c379a00000000000000000000000000000000000000000000000000000000081526004016114ff90612bbd565b60405180910390fd5b8060066000848152602001908152602001600020908051906020019061152f929190611ae8565b505050565b60008073ffffffffffffffffffffffffffffffffffffffff166002600084815260200190815260200160002060009054906101000a900473ffffffffffffffffffffffffffffffffffffffff1673ffffffffffffffffffffffffffffffffffffffff1614159050919050565b505050565b505050565b60006115cb8473ffffffffffffffffffffffffffffffffffffffff166118ec565b15611724578373ffffffffffffffffffffffffffffffffffffffff1663150b7a026115f4610d37565b8786866040518563ffffffff1660e01b81526004016116169493929190612c27565b6020604051808303816000875af192505050801561165257506040513d601f19601f8201168201806040525081019061164f9190612c88565b60015b6116d4573d8060008114611682576040519150601f19603f3d011682016040523d82523d6000602084013e611687565b606091505b5060008151036116cc576040517f08c379a00000000000000000000000000000000000000000000000000000000081526004016116c390612b2b565b60405180910390fd5b805181602001fd5b63150b7a0260e01b7bffffffffffffffffffffffffffffffffffffffffffffffffffffffff1916817bffffffffffffffffffffffffffffffffffffffffffffffffffffffff191614915050611729565b600190505b949350505050565b606060008203611778576040518060400160405280600181526020017f3000000000000000000000000000000000000000000000000000000000000000815250905061188c565b600082905060005b600082146117aa57808061179390612cb5565b915050600a826117a39190612d2c565b9150611780565b60008167ffffffffffffffff8111156117c6576117c5611ef4565b5b6040519080825280601f01601f1916602001820160405280156117f85781602001600182028036833780820191505090505b5090505b60008514611885576001826118119190612957565b9150600a856118209190612d5d565b603061182c919061298b565b60f81b81838151811061184257611841612d8e565b5b60200101907effffffffffffffffffffffffffffffffffffffffffffffffffffffffffffff1916908160001a905350600a8561187e9190612d2c565b94506117fc565b8093505050505b919050565b61189b838361190f565b6118a860008484846115aa565b6118e7576040517f08c379a00000000000000000000000000000000000000000000000000000000081526004016118de90612b2b565b60405180910390fd5b505050565b6000808273ffffffffffffffffffffffffffffffffffffffff163b119050919050565b600073ffffffffffffffffffffffffffffffffffffffff168273ffffffffffffffffffffffffffffffffffffffff160361197e576040517f08c379a000000000000000000000000000000000000000000000000000000000815260040161197590612e09565b60405180910390fd5b61198781611534565b156119c7576040517f08c379a00000000000000000000000000000000000000000000000000000000081526004016119be90612e75565b60405180910390fd5b6119d3600083836115a0565b6001600360008473ffffffffffffffffffffffffffffffffffffffff1673ffffffffffffffffffffffffffffffffffffffff1681526020019081526020016000206000828254611a23919061298b565b92505081905550816002600083815260200190815260200160002060006101000a81548173ffffffffffffffffffffffffffffffffffffffff021916908373ffffffffffffffffffffffffffffffffffffffff160217905550808273ffffffffffffffffffffffffffffffffffffffff16600073ffffffffffffffffffffffffffffffffffffffff167fddf252ad1be2c89b69c2b068fc378daa952ba7f163c4a11628f55a4df523b3ef60405160405180910390a4611ae4600083836115a5565b5050565b828054611af490612267565b90600052602060002090601f016020900481019282611b165760008555611b5d565b82601f10611b2f57805160ff1916838001178555611b5d565b82800160010185558215611b5d579182015b82811115611b5c578251825591602001919060010190611b41565b5b509050611b6a9190611b6e565b5090565b5b80821115611b87576000816000905550600101611b6f565b5090565b6000604051905090565b600080fd5b600080fd5b60007fffffffff0000000000000000000000000000000000000000000000000000000082169050919050565b611bd481611b9f565b8114611bdf57600080fd5b50565b600081359050611bf181611bcb565b92915050565b600060208284031215611c0d57611c0c611b95565b5b6000611c1b84828501611be2565b91505092915050565b60008115159050919050565b611c3981611c24565b82525050565b6000602082019050611c546000830184611c30565b92915050565b600081519050919050565b600082825260208201905092915050565b60005b83811015611c94578082015181840152602081019050611c79565b83811115611ca3576000848401525b50505050565b6000601f19601f8301169050919050565b6000611cc582611c5a565b611ccf8185611c65565b9350611cdf818560208601611c76565b611ce881611ca9565b840191505092915050565b60006020820190508181036000830152611d0d8184611cba565b905092915050565b6000819050919050565b611d2881611d15565b8114611d3357600080fd5b50565b600081359050611d4581611d1f565b92915050565b600060208284031215611d6157611d60611b95565b5b6000611d6f84828501611d36565b91505092915050565b600073ffffffffffffffffffffffffffffffffffffffff82169050919050565b6000611da382611d78565b9050919050565b611db381611d98565b82525050565b6000602082019050611dce6000830184611daa565b92915050565b611ddd81611d98565b8114611de857600080fd5b50565b600081359050611dfa81611dd4565b92915050565b60008060408385031215611e1757611e16611b95565b5b6000611e2585828601611deb565b9250506020611e3685828601611d36565b9150509250929050565b600080600060608486031215611e5957611e58611b95565b5b6000611e6786828701611deb565b9350506020611e7886828701611deb565b9250506040611e8986828701611d36565b9150509250925092565b600060208284031215611ea957611ea8611b95565b5b6000611eb784828501611deb565b91505092915050565b611ec981611d15565b82525050565b6000602082019050611ee46000830184611ec0565b92915050565b600080fd5b600080fd5b7f4e487b7100000000000000000000000000000000000000000000000000000000600052604160045260246000fd5b611f2c82611ca9565b810181811067ffffffffffffffff82111715611f4b57611f4a611ef4565b5b80604052505050565b6000611f5e611b8b565b9050611f6a8282611f23565b919050565b600067ffffffffffffffff821115611f8a57611f89611ef4565b5b611f9382611ca9565b9050602081019050919050565b82818337600083830152505050565b6000611fc2611fbd84611f6f565b611f54565b905082815260208101848484011115611fde57611fdd611eef565b5b611fe9848285611fa0565b509392505050565b600082601f83011261200657612005611eea565b5b8135612016848260208601611faf565b91505092915050565b60006020828403121561203557612034611b95565b5b600082013567ffffffffffffffff81111561205357612052611b9a565b5b61205f84828501611ff1565b91505092915050565b61207181611c24565b811461207c57600080fd5b50565b60008135905061208e81612068565b92915050565b600080604083850312156120ab576120aa611b95565b5b60006120b985828601611deb565b92505060206120ca8582860161207f565b9150509250929050565b600067ffffffffffffffff8211156120ef576120ee611ef4565b5b6120f882611ca9565b9050602081019050919050565b6000612118612113846120d4565b611f54565b90508281526020810184848401111561213457612133611eef565b5b61213f848285611fa0565b509392505050565b600082601f83011261215c5761215b611eea565b5b813561216c848260208601612105565b91505092915050565b6000806000806080858703121561218f5761218e611b95565b5b600061219d87828801611deb565b94505060206121ae87828801611deb565b93505060406121bf87828801611d36565b925050606085013567ffffffffffffffff8111156121e0576121df611b9a565b5b6121ec87828801612147565b91505092959194509250565b6000806040838503121561220f5761220e611b95565b5b600061221d85828601611deb565b925050602061222e85828601611deb565b9150509250929050565b7f4e487b7100000000000000000000000000000000000000000000000000000000600052602260045260246000fd5b6000600282049050600182168061227f57607f821691505b60208210810361229257612291612238565b5b50919050565b7f4552433732313a20617070726f76616c20746f2063757272656e74206f776e6560008201527f7200000000000000000000000000000000000000000000000000000000000000602082015250565b60006122f4602183611c65565b91506122ff82612298565b604082019050919050565b60006020820190508181036000830152612323816122e7565b9050919050565b7f4552433732313a20617070726f76652063616c6c6572206973206e6f7420746f60008201527f6b656e206f776e6572206e6f7220617070726f76656420666f7220616c6c0000602082015250565b6000612386603e83611c65565b91506123918261232a565b604082019050919050565b600060208201905081810360008301526123b581612379565b9050919050565b7f4552433732313a2063616c6c6572206973206e6f7420746f6b656e206f776e6560008201527f72206e6f7220617070726f766564000000000000000000000000000000000000602082015250565b6000612418602e83611c65565b9150612423826123bc565b604082019050919050565b600060208201905081810360008301526124478161240b565b9050919050565b7f4552433732313a20696e76616c696420746f6b656e2049440000000000000000600082015250565b6000612484601883611c65565b915061248f8261244e565b602082019050919050565b600060208201905081810360008301526124b381612477565b9050919050565b7f4552433732313a2061646472657373207a65726f206973206e6f74206120766160008201527f6c6964206f776e65720000000000000000000000000000000000000000000000602082015250565b6000612516602983611c65565b9150612521826124ba565b604082019050919050565b6000602082019050818103600083015261254581612509565b9050919050565b600081905092915050565b7f7b226e616d65223a20224c434d204f4e2d434841494e4544222c20226465736360008201527f72697074696f6e223a2022412073696d706c6520535647206261736564206f6e60208201527f2d636861696e204e4654222c2022696d616765223a2200000000000000000000604082015250565b60006125d960568361254c565b91506125e482612557565b605682019050919050565b60006125fa82611c5a565b612604818561254c565b9350612614818560208601611c76565b80840191505092915050565b7f227d000000000000000000000000000000000000000000000000000000000000600082015250565b600061265660028361254c565b915061266182612620565b600282019050919050565b6000612677826125cc565b915061268382846125ef565b915061268e82612649565b915081905092915050565b7f646174613a6170706c69636174696f6e2f6a736f6e3b6261736536342c000000600082015250565b60006126cf601d8361254c565b91506126da82612699565b601d82019050919050565b600081519050919050565b600081905092915050565b6000612706826126e5565b61271081856126f0565b9350612720818560208601611c76565b80840191505092915050565b6000612737826126c2565b915061274382846126fb565b915081905092915050565b600061275a82856125ef565b915061276682846125ef565b91508190509392505050565b7f4f776e61626c653a206e6577206f776e657220697320746865207a65726f206160008201527f6464726573730000000000000000000000000000000000000000000000000000602082015250565b60006127ce602683611c65565b91506127d982612772565b604082019050919050565b600060208201905081810360008301526127fd816127c1565b9050919050565b7f4552433732313a207472616e736665722066726f6d20696e636f72726563742060008201527f6f776e6572000000000000000000000000000000000000000000000000000000602082015250565b6000612860602583611c65565b915061286b82612804565b604082019050919050565b6000602082019050818103600083015261288f81612853565b9050919050565b7f4552433732313a207472616e7366657220746f20746865207a65726f2061646460008201527f7265737300000000000000000000000000000000000000000000000000000000602082015250565b60006128f2602483611c65565b91506128fd82612896565b604082019050919050565b60006020820190508181036000830152612921816128e5565b9050919050565b7f4e487b7100000000000000000000000000000000000000000000000000000000600052601160045260246000fd5b600061296282611d15565b915061296d83611d15565b9250828210156129805761297f612928565b5b828203905092915050565b600061299682611d15565b91506129a183611d15565b9250827fffffffffffffffffffffffffffffffffffffffffffffffffffffffffffffffff038211156129d6576129d5612928565b5b828201905092915050565b7f4f776e61626c653a2063616c6c6572206973206e6f7420746865206f776e6572600082015250565b6000612a17602083611c65565b9150612a22826129e1565b602082019050919050565b60006020820190508181036000830152612a4681612a0a565b9050919050565b7f4552433732313a20617070726f766520746f2063616c6c657200000000000000600082015250565b6000612a83601983611c65565b9150612a8e82612a4d565b602082019050919050565b60006020820190508181036000830152612ab281612a76565b9050919050565b7f4552433732313a207472616e7366657220746f206e6f6e20455243373231526560008201527f63656976657220696d706c656d656e7465720000000000000000000000000000602082015250565b6000612b15603283611c65565b9150612b2082612ab9565b604082019050919050565b60006020820190508181036000830152612b4481612b08565b9050919050565b7f45524337323155524953746f726167653a2055524920736574206f66206e6f6e60008201527f6578697374656e7420746f6b656e000000000000000000000000000000000000602082015250565b6000612ba7602e83611c65565b9150612bb282612b4b565b604082019050919050565b60006020820190508181036000830152612bd681612b9a565b9050919050565b600082825260208201905092915050565b6000612bf9826126e5565b612c038185612bdd565b9350612c13818560208601611c76565b612c1c81611ca9565b840191505092915050565b6000608082019050612c3c6000830187611daa565b612c496020830186611daa565b612c566040830185611ec0565b8181036060830152612c688184612bee565b905095945050505050565b600081519050612c8281611bcb565b92915050565b600060208284031215612c9e57612c9d611b95565b5b6000612cac84828501612c73565b91505092915050565b6000612cc082611d15565b91507fffffffffffffffffffffffffffffffffffffffffffffffffffffffffffffffff8203612cf257612cf1612928565b5b600182019050919050565b7f4e487b7100000000000000000000000000000000000000000000000000000000600052601260045260246000fd5b6000612d3782611d15565b9150612d4283611d15565b925082612d5257612d51612cfd565b5b828204905092915050565b6000612d6882611d15565b9150612d7383611d15565b925082612d8357612d82612cfd565b5b828206905092915050565b7f4e487b7100000000000000000000000000000000000000000000000000000000600052603260045260246000fd5b7f4552433732313a206d696e7420746f20746865207a65726f2061646472657373600082015250565b6000612df3602083611c65565b9150612dfe82612dbd565b602082019050919050565b60006020820190508181036000830152612e2281612de6565b9050919050565b7f4552433732313a20746f6b656e20616c7265616479206d696e74656400000000600082015250565b6000612e5f601c83611c65565b9150612e6a82612e29565b602082019050919050565b60006020820190508181036000830152612e8e81612e52565b905091905056fea2646970667358221220e46de78ed980ebed84a30d15f310a4b33a3a47b5f3d7506ab6210af948eb723b64736f6c634300080e0033",
  "immutableReferences": {},
  "source": "/* \n    A library that provides a function for encoding some bytes in base64\n    Source: https://github.com/zlayine/epic-game-buildspace/blob/master/contracts/libraries/Base64.sol\n*/\n//import {Base64} from \"./Base64.sol\";\n\n\n\n// npm install @openzeppelin/contracts\npragma solidity >=0.4.22 <0.9.0;\n\n//import \"@openzeppelin/contracts/token/ERC721/extensions/ERC721URIStorage.sol\"\n\nimport \"../node_modules/openzeppelin/contracts/token/ERC721/extensions/ERC721URIStorage.sol\"; \nimport \"../node_modules/openzeppelin/contracts/access/Ownable.sol\";\nimport \"../node_modules/openzeppelin/contracts/utils/Counters.sol\";\n\n//import \"@openzeppelin/contracts/token/ERC721/extensions/ERC721Enumerable.sol\";\n\ncontract OnChainNFT is ERC721URIStorage, Ownable {\n    event Minted(uint256 tokenId);\n\n    using Counters for Counters.Counter;\n    Counters.Counter private _tokenIds;\n\n    constructor() ERC721(\"OnChainNFT\", \"ONC\") {}\n\n\n    /* Generates a tokenURI using Base64 string as the image */\n    function formatTokenURI(string memory imageURI)\n        public\n        pure\n        returns (string memory)\n    {\n        return\n            string(\n                abi.encodePacked(\n                    \"data:application/json;base64,\",\n                 //   Base64.encode(\n                        bytes(\n                            abi.encodePacked(\n                                '{\"name\": \"LCM ON-CHAINED\", \"description\": \"A simple SVG based on-chain NFT\", \"image\":\"',\n                                imageURI,\n                                '\"}'\n                            )\n                        )\n                 //   )\n                )\n            );\n    }\n\n    /* Mints the token */\n\n    // evtl public view\n    function mint(string memory imageURI) public onlyOwner {\n       // string memory imageURI = svgToImageURI();\n        string memory tokenURI = formatTokenURI(imageURI); //formating to json\n\n        _tokenIds.increment();\n        uint256 newItemId = _tokenIds.current();\n\n        _safeMint(msg.sender, newItemId);\n        _setTokenURI(newItemId, tokenURI);\n\n        emit Minted(newItemId);\n    }\n}\n",
  "sourcePath": "/home/bruh/Desktop/solidity_projects/crypto_pixel_art_creator/truffle/contracts/OnChainNFT.sol",
  "compiler": {
    "name": "solc",
    "version": "0.8.14+commit.80d49f37.Emscripten.clang"
  },
  "schemaVersion": "3.4.7",
  "updatedAt": "2022-09-09T22:44:10.639Z",
  "networkType": "ethereum",
  "devdoc": {
    "kind": "dev",
    "methods": {
      "approve(address,uint256)": {
        "details": "See {IERC721-approve}."
      },
      "balanceOf(address)": {
        "details": "See {IERC721-balanceOf}."
      },
      "getApproved(uint256)": {
        "details": "See {IERC721-getApproved}."
      },
      "isApprovedForAll(address,address)": {
        "details": "See {IERC721-isApprovedForAll}."
      },
      "name()": {
        "details": "See {IERC721Metadata-name}."
      },
      "owner()": {
        "details": "Returns the address of the current owner."
      },
      "ownerOf(uint256)": {
        "details": "See {IERC721-ownerOf}."
      },
      "renounceOwnership()": {
        "details": "Leaves the contract without owner. It will not be possible to call `onlyOwner` functions anymore. Can only be called by the current owner. NOTE: Renouncing ownership will leave the contract without an owner, thereby removing any functionality that is only available to the owner."
      },
      "safeTransferFrom(address,address,uint256)": {
        "details": "See {IERC721-safeTransferFrom}."
      },
      "safeTransferFrom(address,address,uint256,bytes)": {
        "details": "See {IERC721-safeTransferFrom}."
      },
      "setApprovalForAll(address,bool)": {
        "details": "See {IERC721-setApprovalForAll}."
      },
      "supportsInterface(bytes4)": {
        "details": "See {IERC165-supportsInterface}."
      },
      "symbol()": {
        "details": "See {IERC721Metadata-symbol}."
      },
      "tokenURI(uint256)": {
        "details": "See {IERC721Metadata-tokenURI}."
      },
      "transferFrom(address,address,uint256)": {
        "details": "See {IERC721-transferFrom}."
      },
      "transferOwnership(address)": {
        "details": "Transfers ownership of the contract to a new account (`newOwner`). Can only be called by the current owner."
      }
    },
    "version": 1
  },
  "userdoc": {
    "kind": "user",
    "methods": {},
    "version": 1
  }
}